{
  "_format": "hh-sol-artifact-1",
  "contractName": "RingToken",
  "sourceName": "contracts/RingToken.sol",
  "abi": [
    {
      "inputs": [],
      "stateMutability": "nonpayable",
      "type": "constructor"
    },
    {
      "anonymous": false,
      "inputs": [
        {
          "indexed": true,
          "internalType": "address",
          "name": "owner",
          "type": "address"
        },
        {
          "indexed": true,
          "internalType": "address",
          "name": "approved",
          "type": "address"
        },
        {
          "indexed": true,
          "internalType": "uint256",
          "name": "tokenId",
          "type": "uint256"
        }
      ],
      "name": "Approval",
      "type": "event"
    },
    {
      "anonymous": false,
      "inputs": [
        {
          "indexed": true,
          "internalType": "address",
          "name": "owner",
          "type": "address"
        },
        {
          "indexed": true,
          "internalType": "address",
          "name": "operator",
          "type": "address"
        },
        {
          "indexed": false,
          "internalType": "bool",
          "name": "approved",
          "type": "bool"
        }
      ],
      "name": "ApprovalForAll",
      "type": "event"
    },
    {
      "anonymous": false,
      "inputs": [
        {
          "indexed": true,
          "internalType": "address",
          "name": "previousOwner",
          "type": "address"
        },
        {
          "indexed": true,
          "internalType": "address",
          "name": "newOwner",
          "type": "address"
        }
      ],
      "name": "OwnershipTransferred",
      "type": "event"
    },
    {
      "anonymous": false,
      "inputs": [
        {
          "indexed": true,
          "internalType": "address",
          "name": "from",
          "type": "address"
        },
        {
          "indexed": true,
          "internalType": "address",
          "name": "to",
          "type": "address"
        },
        {
          "indexed": true,
          "internalType": "uint256",
          "name": "tokenId",
          "type": "uint256"
        }
      ],
      "name": "Transfer",
      "type": "event"
    },
    {
      "inputs": [
        {
          "internalType": "address",
          "name": "to",
          "type": "address"
        },
        {
          "internalType": "uint256",
          "name": "tokenId",
          "type": "uint256"
        }
      ],
      "name": "approve",
      "outputs": [],
      "stateMutability": "nonpayable",
      "type": "function"
    },
    {
      "inputs": [
        {
          "internalType": "address",
          "name": "owner",
          "type": "address"
        }
      ],
      "name": "balanceOf",
      "outputs": [
        {
          "internalType": "uint256",
          "name": "",
          "type": "uint256"
        }
      ],
      "stateMutability": "view",
      "type": "function"
    },
    {
      "inputs": [
        {
          "internalType": "uint256",
          "name": "tokenId",
          "type": "uint256"
        }
      ],
      "name": "claim",
      "outputs": [],
      "stateMutability": "nonpayable",
      "type": "function"
    },
    {
      "inputs": [
        {
          "internalType": "uint256",
          "name": "tokenId",
          "type": "uint256"
        }
      ],
      "name": "getApproved",
      "outputs": [
        {
          "internalType": "address",
          "name": "",
          "type": "address"
        }
      ],
      "stateMutability": "view",
      "type": "function"
    },
    {
      "inputs": [
        {
          "internalType": "address",
          "name": "owner",
          "type": "address"
        },
        {
          "internalType": "address",
          "name": "operator",
          "type": "address"
        }
      ],
      "name": "isApprovedForAll",
      "outputs": [
        {
          "internalType": "bool",
          "name": "",
          "type": "bool"
        }
      ],
      "stateMutability": "view",
      "type": "function"
    },
    {
      "inputs": [
        {
          "internalType": "uint256",
          "name": "tokenId",
          "type": "uint256"
        }
      ],
      "name": "mint",
      "outputs": [],
      "stateMutability": "payable",
      "type": "function"
    },
    {
      "inputs": [
        {
          "internalType": "address",
          "name": "recipient",
          "type": "address"
        },
        {
          "internalType": "string",
          "name": "tokenURI",
          "type": "string"
        }
      ],
      "name": "mintNFT",
      "outputs": [
        {
          "internalType": "uint256",
          "name": "",
          "type": "uint256"
        }
      ],
      "stateMutability": "nonpayable",
      "type": "function"
    },
    {
      "inputs": [],
      "name": "name",
      "outputs": [
        {
          "internalType": "string",
          "name": "",
          "type": "string"
        }
      ],
      "stateMutability": "view",
      "type": "function"
    },
    {
      "inputs": [],
      "name": "owner",
      "outputs": [
        {
          "internalType": "address",
          "name": "",
          "type": "address"
        }
      ],
      "stateMutability": "view",
      "type": "function"
    },
    {
      "inputs": [
        {
          "internalType": "uint256",
          "name": "tokenId",
          "type": "uint256"
        }
      ],
      "name": "ownerOf",
      "outputs": [
        {
          "internalType": "address",
          "name": "",
          "type": "address"
        }
      ],
      "stateMutability": "view",
      "type": "function"
    },
    {
      "inputs": [],
      "name": "renounceOwnership",
      "outputs": [],
      "stateMutability": "nonpayable",
      "type": "function"
    },
    {
      "inputs": [
        {
          "internalType": "address",
          "name": "from",
          "type": "address"
        },
        {
          "internalType": "address",
          "name": "to",
          "type": "address"
        },
        {
          "internalType": "uint256",
          "name": "tokenId",
          "type": "uint256"
        }
      ],
      "name": "safeTransferFrom",
      "outputs": [],
      "stateMutability": "nonpayable",
      "type": "function"
    },
    {
      "inputs": [
        {
          "internalType": "address",
          "name": "from",
          "type": "address"
        },
        {
          "internalType": "address",
          "name": "to",
          "type": "address"
        },
        {
          "internalType": "uint256",
          "name": "tokenId",
          "type": "uint256"
        },
        {
          "internalType": "bytes",
          "name": "_data",
          "type": "bytes"
        }
      ],
      "name": "safeTransferFrom",
      "outputs": [],
      "stateMutability": "nonpayable",
      "type": "function"
    },
    {
      "inputs": [
        {
          "internalType": "address",
          "name": "operator",
          "type": "address"
        },
        {
          "internalType": "bool",
          "name": "approved",
          "type": "bool"
        }
      ],
      "name": "setApprovalForAll",
      "outputs": [],
      "stateMutability": "nonpayable",
      "type": "function"
    },
    {
      "inputs": [
        {
          "internalType": "bytes4",
          "name": "interfaceId",
          "type": "bytes4"
        }
      ],
      "name": "supportsInterface",
      "outputs": [
        {
          "internalType": "bool",
          "name": "",
          "type": "bool"
        }
      ],
      "stateMutability": "view",
      "type": "function"
    },
    {
      "inputs": [],
      "name": "symbol",
      "outputs": [
        {
          "internalType": "string",
          "name": "",
          "type": "string"
        }
      ],
      "stateMutability": "view",
      "type": "function"
    },
    {
      "inputs": [
        {
          "internalType": "uint256",
          "name": "tokenId",
          "type": "uint256"
        }
      ],
      "name": "tokenURI",
      "outputs": [
        {
          "internalType": "string",
          "name": "",
          "type": "string"
        }
      ],
      "stateMutability": "view",
      "type": "function"
    },
    {
      "inputs": [
        {
          "internalType": "address",
          "name": "from",
          "type": "address"
        },
        {
          "internalType": "address",
          "name": "to",
          "type": "address"
        },
        {
          "internalType": "uint256",
          "name": "tokenId",
          "type": "uint256"
        }
      ],
      "name": "transferFrom",
      "outputs": [],
      "stateMutability": "nonpayable",
      "type": "function"
    },
    {
      "inputs": [
        {
          "internalType": "address",
          "name": "newOwner",
          "type": "address"
        }
      ],
      "name": "transferOwnership",
      "outputs": [],
      "stateMutability": "nonpayable",
      "type": "function"
    }
  ],
  "bytecode": "0x60806040523480156200001157600080fd5b506040518060400160405280600981526020017f52696e67546f6b656e00000000000000000000000000000000000000000000008152506040518060400160405280600381526020017f524e540000000000000000000000000000000000000000000000000000000000815250816000908051906020019062000096929190620001a6565b508060019080519060200190620000af929190620001a6565b505050620000d2620000c6620000d860201b60201c565b620000e060201b60201c565b620002bb565b600033905090565b6000600760009054906101000a900473ffffffffffffffffffffffffffffffffffffffff16905081600760006101000a81548173ffffffffffffffffffffffffffffffffffffffff021916908373ffffffffffffffffffffffffffffffffffffffff1602179055508173ffffffffffffffffffffffffffffffffffffffff168173ffffffffffffffffffffffffffffffffffffffff167f8be0079c531659141344cd1fd0a4f28419497f9722a3daafe3b4186f6b6457e060405160405180910390a35050565b828054620001b49062000256565b90600052602060002090601f016020900481019282620001d8576000855562000224565b82601f10620001f357805160ff191683800117855562000224565b8280016001018555821562000224579182015b828111156200022357825182559160200191906001019062000206565b5b50905062000233919062000237565b5090565b5b808211156200025257600081600090555060010162000238565b5090565b600060028204905060018216806200026f57607f821691505b602082108114156200028657620002856200028c565b5b50919050565b7f4e487b7100000000000000000000000000000000000000000000000000000000600052602260045260246000fd5b6132ba80620002cb6000396000f3fe6080604052600436106101145760003560e01c8063715018a6116100a0578063b88d4fde11610064578063b88d4fde1461038e578063c87b56dd146103b7578063e985e9c5146103f4578063eacabe1414610431578063f2fde38b1461046e57610114565b8063715018a6146102dc5780638da5cb5b146102f357806395d89b411461031e578063a0712d6814610349578063a22cb4651461036557610114565b806323b872dd116100e757806323b872dd146101e7578063379607f51461021057806342842e0e146102395780636352211e1461026257806370a082311461029f57610114565b806301ffc9a71461011957806306fdde0314610156578063081812fc14610181578063095ea7b3146101be575b600080fd5b34801561012557600080fd5b50610140600480360381019061013b9190612232565b610497565b60405161014d9190612b42565b60405180910390f35b34801561016257600080fd5b5061016b610579565b6040516101789190612b5d565b60405180910390f35b34801561018d57600080fd5b506101a860048036038101906101a39190612284565b61060b565b6040516101b59190612adb565b60405180910390f35b3480156101ca57600080fd5b506101e560048036038101906101e091906121f6565b610690565b005b3480156101f357600080fd5b5061020e6004803603810190610209919061209c565b6107a8565b005b34801561021c57600080fd5b5061023760048036038101906102329190612284565b610808565b005b34801561024557600080fd5b50610260600480360381019061025b919061209c565b61086c565b005b34801561026e57600080fd5b5061028960048036038101906102849190612284565b61088c565b6040516102969190612adb565b60405180910390f35b3480156102ab57600080fd5b506102c660048036038101906102c19190612037565b61093e565b6040516102d39190612dff565b60405180910390f35b3480156102e857600080fd5b506102f16109f6565b005b3480156102ff57600080fd5b50610308610a7e565b6040516103159190612adb565b60405180910390f35b34801561032a57600080fd5b50610333610aa8565b6040516103409190612b5d565b60405180910390f35b610363600480360381019061035e9190612284565b610b3a565b005b34801561037157600080fd5b5061038c60048036038101906103879190612166565b610be8565b005b34801561039a57600080fd5b506103b560048036038101906103b091906120eb565b610d69565b005b3480156103c357600080fd5b506103de60048036038101906103d99190612284565b610dcb565b6040516103eb9190612b5d565b60405180910390f35b34801561040057600080fd5b5061041b60048036038101906104169190612060565b610f1d565b6040516104289190612b42565b60405180910390f35b34801561043d57600080fd5b50610458600480360381019061045391906121a2565b610fb1565b6040516104659190612dff565b60405180910390f35b34801561047a57600080fd5b5061049560048036038101906104909190612037565b61106e565b005b60007f80ac58cd000000000000000000000000000000000000000000000000000000007bffffffffffffffffffffffffffffffffffffffffffffffffffffffff1916827bffffffffffffffffffffffffffffffffffffffffffffffffffffffff1916148061056257507f5b5e139f000000000000000000000000000000000000000000000000000000007bffffffffffffffffffffffffffffffffffffffffffffffffffffffff1916827bffffffffffffffffffffffffffffffffffffffffffffffffffffffff1916145b80610572575061057182611166565b5b9050919050565b6060600080546105889061305f565b80601f01602080910402602001604051908101604052809291908181526020018280546105b49061305f565b80156106015780601f106105d657610100808354040283529160200191610601565b820191906000526020600020905b8154815290600101906020018083116105e457829003601f168201915b5050505050905090565b6000610616826111d0565b610655576040517f08c379a000000000000000000000000000000000000000000000000000000000815260040161064c90612d3f565b60405180910390fd5b6004600083815260200190815260200160002060009054906101000a900473ffffffffffffffffffffffffffffffffffffffff169050919050565b600061069b8261088c565b90508073ffffffffffffffffffffffffffffffffffffffff168373ffffffffffffffffffffffffffffffffffffffff16141561070c576040517f08c379a000000000000000000000000000000000000000000000000000000000815260040161070390612dbf565b60405180910390fd5b8073ffffffffffffffffffffffffffffffffffffffff1661072b61123c565b73ffffffffffffffffffffffffffffffffffffffff16148061075a57506107598161075461123c565b610f1d565b5b610799576040517f08c379a000000000000000000000000000000000000000000000000000000000815260040161079090612c7f565b60405180910390fd5b6107a38383611244565b505050565b6107b96107b361123c565b826112fd565b6107f8576040517f08c379a00000000000000000000000000000000000000000000000000000000081526004016107ef90612ddf565b60405180910390fd5b6108038383836113db565b505050565b600081118015610819575061138881105b610858576040517f08c379a000000000000000000000000000000000000000000000000000000000815260040161084f90612b7f565b60405180910390fd5b61086961086361123c565b82611637565b50565b61088783838360405180602001604052806000815250610d69565b505050565b6000806002600084815260200190815260200160002060009054906101000a900473ffffffffffffffffffffffffffffffffffffffff169050600073ffffffffffffffffffffffffffffffffffffffff168173ffffffffffffffffffffffffffffffffffffffff161415610935576040517f08c379a000000000000000000000000000000000000000000000000000000000815260040161092c90612cbf565b60405180910390fd5b80915050919050565b60008073ffffffffffffffffffffffffffffffffffffffff168273ffffffffffffffffffffffffffffffffffffffff1614156109af576040517f08c379a00000000000000000000000000000000000000000000000000000000081526004016109a690612c9f565b60405180910390fd5b600360008373ffffffffffffffffffffffffffffffffffffffff1673ffffffffffffffffffffffffffffffffffffffff168152602001908152602001600020549050919050565b6109fe61123c565b73ffffffffffffffffffffffffffffffffffffffff16610a1c610a7e565b73ffffffffffffffffffffffffffffffffffffffff1614610a72576040517f08c379a0000000000000000000000000000000000000000000000000000000008152600401610a6990612d5f565b60405180910390fd5b610a7c6000611655565b565b6000600760009054906101000a900473ffffffffffffffffffffffffffffffffffffffff16905090565b606060018054610ab79061305f565b80601f0160208091040260200160405190810160405280929190818152602001828054610ae39061305f565b8015610b305780601f10610b0557610100808354040283529160200191610b30565b820191906000526020600020905b815481529060010190602001808311610b1357829003601f168201915b5050505050905090565b600081118015610b4b575061138881105b610b8a576040517f08c379a0000000000000000000000000000000000000000000000000000000008152600401610b8190612b7f565b60405180910390fd5b66b1a2bc2ec50000341015610bd4576040517f08c379a0000000000000000000000000000000000000000000000000000000008152600401610bcb90612c5f565b60405180910390fd5b610be5610bdf61123c565b82611637565b50565b610bf061123c565b73ffffffffffffffffffffffffffffffffffffffff168273ffffffffffffffffffffffffffffffffffffffff161415610c5e576040517f08c379a0000000000000000000000000000000000000000000000000000000008152600401610c5590612c1f565b60405180910390fd5b8060056000610c6b61123c565b73ffffffffffffffffffffffffffffffffffffffff1673ffffffffffffffffffffffffffffffffffffffff16815260200190815260200160002060008473ffffffffffffffffffffffffffffffffffffffff1673ffffffffffffffffffffffffffffffffffffffff16815260200190815260200160002060006101000a81548160ff0219169083151502179055508173ffffffffffffffffffffffffffffffffffffffff16610d1861123c565b73ffffffffffffffffffffffffffffffffffffffff167f17307eab39ab6107e8899845ad3d59bd9653f200f220920489ca2b5937696c3183604051610d5d9190612b42565b60405180910390a35050565b610d7a610d7461123c565b836112fd565b610db9576040517f08c379a0000000000000000000000000000000000000000000000000000000008152600401610db090612ddf565b60405180910390fd5b610dc58484848461171b565b50505050565b6060610dd6826111d0565b610e15576040517f08c379a0000000000000000000000000000000000000000000000000000000008152600401610e0c90612d1f565b60405180910390fd5b6000600660008481526020019081526020016000208054610e359061305f565b80601f0160208091040260200160405190810160405280929190818152602001828054610e619061305f565b8015610eae5780601f10610e8357610100808354040283529160200191610eae565b820191906000526020600020905b815481529060010190602001808311610e9157829003601f168201915b505050505090506000610ebf611777565b9050600081511415610ed5578192505050610f18565b600082511115610f0a578082604051602001610ef2929190612ab7565b60405160208183030381529060405292505050610f18565b610f1384611797565b925050505b919050565b6000600560008473ffffffffffffffffffffffffffffffffffffffff1673ffffffffffffffffffffffffffffffffffffffff16815260200190815260200160002060008373ffffffffffffffffffffffffffffffffffffffff1673ffffffffffffffffffffffffffffffffffffffff16815260200190815260200160002060009054906101000a900460ff16905092915050565b6000610fbb61123c565b73ffffffffffffffffffffffffffffffffffffffff16610fd9610a7e565b73ffffffffffffffffffffffffffffffffffffffff161461102f576040517f08c379a000000000000000000000000000000000000000000000000000000000815260040161102690612d5f565b60405180910390fd5b611039600861183e565b60006110456008611854565b905061105081610b3a565b61105a8482611637565b6110648184611862565b8091505092915050565b61107661123c565b73ffffffffffffffffffffffffffffffffffffffff16611094610a7e565b73ffffffffffffffffffffffffffffffffffffffff16146110ea576040517f08c379a00000000000000000000000000000000000000000000000000000000081526004016110e190612d5f565b60405180910390fd5b600073ffffffffffffffffffffffffffffffffffffffff168173ffffffffffffffffffffffffffffffffffffffff16141561115a576040517f08c379a000000000000000000000000000000000000000000000000000000000815260040161115190612bbf565b60405180910390fd5b61116381611655565b50565b60007f01ffc9a7000000000000000000000000000000000000000000000000000000007bffffffffffffffffffffffffffffffffffffffffffffffffffffffff1916827bffffffffffffffffffffffffffffffffffffffffffffffffffffffff1916149050919050565b60008073ffffffffffffffffffffffffffffffffffffffff166002600084815260200190815260200160002060009054906101000a900473ffffffffffffffffffffffffffffffffffffffff1673ffffffffffffffffffffffffffffffffffffffff1614159050919050565b600033905090565b816004600083815260200190815260200160002060006101000a81548173ffffffffffffffffffffffffffffffffffffffff021916908373ffffffffffffffffffffffffffffffffffffffff160217905550808273ffffffffffffffffffffffffffffffffffffffff166112b78361088c565b73ffffffffffffffffffffffffffffffffffffffff167f8c5be1e5ebec7d5bd14f71427d1e84f3dd0314c0f7b2291e5b200ac8c7c3b92560405160405180910390a45050565b6000611308826111d0565b611347576040517f08c379a000000000000000000000000000000000000000000000000000000000815260040161133e90612c3f565b60405180910390fd5b60006113528361088c565b90508073ffffffffffffffffffffffffffffffffffffffff168473ffffffffffffffffffffffffffffffffffffffff1614806113c157508373ffffffffffffffffffffffffffffffffffffffff166113a98461060b565b73ffffffffffffffffffffffffffffffffffffffff16145b806113d257506113d18185610f1d565b5b91505092915050565b8273ffffffffffffffffffffffffffffffffffffffff166113fb8261088c565b73ffffffffffffffffffffffffffffffffffffffff1614611451576040517f08c379a000000000000000000000000000000000000000000000000000000000815260040161144890612d7f565b60405180910390fd5b600073ffffffffffffffffffffffffffffffffffffffff168273ffffffffffffffffffffffffffffffffffffffff1614156114c1576040517f08c379a00000000000000000000000000000000000000000000000000000000081526004016114b890612bff565b60405180910390fd5b6114cc8383836118d6565b6114d7600082611244565b6001600360008573ffffffffffffffffffffffffffffffffffffffff1673ffffffffffffffffffffffffffffffffffffffff16815260200190815260200160002060008282546115279190612f75565b925050819055506001600360008473ffffffffffffffffffffffffffffffffffffffff1673ffffffffffffffffffffffffffffffffffffffff168152602001908152602001600020600082825461157e9190612eee565b92505081905550816002600083815260200190815260200160002060006101000a81548173ffffffffffffffffffffffffffffffffffffffff021916908373ffffffffffffffffffffffffffffffffffffffff160217905550808273ffffffffffffffffffffffffffffffffffffffff168473ffffffffffffffffffffffffffffffffffffffff167fddf252ad1be2c89b69c2b068fc378daa952ba7f163c4a11628f55a4df523b3ef60405160405180910390a4505050565b6116518282604051806020016040528060008152506118db565b5050565b6000600760009054906101000a900473ffffffffffffffffffffffffffffffffffffffff16905081600760006101000a81548173ffffffffffffffffffffffffffffffffffffffff021916908373ffffffffffffffffffffffffffffffffffffffff1602179055508173ffffffffffffffffffffffffffffffffffffffff168173ffffffffffffffffffffffffffffffffffffffff167f8be0079c531659141344cd1fd0a4f28419497f9722a3daafe3b4186f6b6457e060405160405180910390a35050565b6117268484846113db565b61173284848484611936565b611771576040517f08c379a000000000000000000000000000000000000000000000000000000000815260040161176890612b9f565b60405180910390fd5b50505050565b606060405180608001604052806050815260200161323560509139905090565b60606117a2826111d0565b6117e1576040517f08c379a00000000000000000000000000000000000000000000000000000000081526004016117d890612d9f565b60405180910390fd5b60006117eb611777565b9050600081511161180b5760405180602001604052806000815250611836565b8061181584611acd565b604051602001611826929190612ab7565b6040516020818303038152906040525b915050919050565b6001816000016000828254019250508190555050565b600081600001549050919050565b61186b826111d0565b6118aa576040517f08c379a00000000000000000000000000000000000000000000000000000000081526004016118a190612cdf565b60405180910390fd5b806006600084815260200190815260200160002090805190602001906118d1929190611e5b565b505050565b505050565b6118e58383611c7a565b6118f26000848484611936565b611931576040517f08c379a000000000000000000000000000000000000000000000000000000000815260040161192890612b9f565b60405180910390fd5b505050565b60006119578473ffffffffffffffffffffffffffffffffffffffff16611e48565b15611ac0578373ffffffffffffffffffffffffffffffffffffffff1663150b7a0261198061123c565b8786866040518563ffffffff1660e01b81526004016119a29493929190612af6565b602060405180830381600087803b1580156119bc57600080fd5b505af19250505080156119ed57506040513d601f19601f820116820180604052508101906119ea919061225b565b60015b611a70573d8060008114611a1d576040519150601f19603f3d011682016040523d82523d6000602084013e611a22565b606091505b50600081511415611a68576040517f08c379a0000000000000000000000000000000000000000000000000000000008152600401611a5f90612b9f565b60405180910390fd5b805181602001fd5b63150b7a0260e01b7bffffffffffffffffffffffffffffffffffffffffffffffffffffffff1916817bffffffffffffffffffffffffffffffffffffffffffffffffffffffff191614915050611ac5565b600190505b949350505050565b60606000821415611b15576040518060400160405280600181526020017f30000000000000000000000000000000000000000000000000000000000000008152509050611c75565b600082905060005b60008214611b47578080611b3090613091565b915050600a82611b409190612f44565b9150611b1d565b60008167ffffffffffffffff811115611b89577f4e487b7100000000000000000000000000000000000000000000000000000000600052604160045260246000fd5b6040519080825280601f01601f191660200182016040528015611bbb5781602001600182028036833780820191505090505b5090505b60008514611c6e57600182611bd49190612f75565b9150600a85611be391906130da565b6030611bef9190612eee565b60f81b818381518110611c2b577f4e487b7100000000000000000000000000000000000000000000000000000000600052603260045260246000fd5b60200101907effffffffffffffffffffffffffffffffffffffffffffffffffffffffffffff1916908160001a905350600a85611c679190612f44565b9450611bbf565b8093505050505b919050565b600073ffffffffffffffffffffffffffffffffffffffff168273ffffffffffffffffffffffffffffffffffffffff161415611cea576040517f08c379a0000000000000000000000000000000000000000000000000000000008152600401611ce190612cff565b60405180910390fd5b611cf3816111d0565b15611d33576040517f08c379a0000000000000000000000000000000000000000000000000000000008152600401611d2a90612bdf565b60405180910390fd5b611d3f600083836118d6565b6001600360008473ffffffffffffffffffffffffffffffffffffffff1673ffffffffffffffffffffffffffffffffffffffff1681526020019081526020016000206000828254611d8f9190612eee565b92505081905550816002600083815260200190815260200160002060006101000a81548173ffffffffffffffffffffffffffffffffffffffff021916908373ffffffffffffffffffffffffffffffffffffffff160217905550808273ffffffffffffffffffffffffffffffffffffffff16600073ffffffffffffffffffffffffffffffffffffffff167fddf252ad1be2c89b69c2b068fc378daa952ba7f163c4a11628f55a4df523b3ef60405160405180910390a45050565b600080823b905060008111915050919050565b828054611e679061305f565b90600052602060002090601f016020900481019282611e895760008555611ed0565b82601f10611ea257805160ff1916838001178555611ed0565b82800160010185558215611ed0579182015b82811115611ecf578251825591602001919060010190611eb4565b5b509050611edd9190611ee1565b5090565b5b80821115611efa576000816000905550600101611ee2565b5090565b6000611f11611f0c84612e4b565b612e1a565b905082815260208101848484011115611f2957600080fd5b611f3484828561301d565b509392505050565b6000611f4f611f4a84612e7b565b612e1a565b905082815260208101848484011115611f6757600080fd5b611f7284828561301d565b509392505050565b600081359050611f89816131d8565b92915050565b600081359050611f9e816131ef565b92915050565b600081359050611fb381613206565b92915050565b600081519050611fc881613206565b92915050565b600082601f830112611fdf57600080fd5b8135611fef848260208601611efe565b91505092915050565b600082601f83011261200957600080fd5b8135612019848260208601611f3c565b91505092915050565b6000813590506120318161321d565b92915050565b60006020828403121561204957600080fd5b600061205784828501611f7a565b91505092915050565b6000806040838503121561207357600080fd5b600061208185828601611f7a565b925050602061209285828601611f7a565b9150509250929050565b6000806000606084860312156120b157600080fd5b60006120bf86828701611f7a565b93505060206120d086828701611f7a565b92505060406120e186828701612022565b9150509250925092565b6000806000806080858703121561210157600080fd5b600061210f87828801611f7a565b945050602061212087828801611f7a565b935050604061213187828801612022565b925050606085013567ffffffffffffffff81111561214e57600080fd5b61215a87828801611fce565b91505092959194509250565b6000806040838503121561217957600080fd5b600061218785828601611f7a565b925050602061219885828601611f8f565b9150509250929050565b600080604083850312156121b557600080fd5b60006121c385828601611f7a565b925050602083013567ffffffffffffffff8111156121e057600080fd5b6121ec85828601611ff8565b9150509250929050565b6000806040838503121561220957600080fd5b600061221785828601611f7a565b925050602061222885828601612022565b9150509250929050565b60006020828403121561224457600080fd5b600061225284828501611fa4565b91505092915050565b60006020828403121561226d57600080fd5b600061227b84828501611fb9565b91505092915050565b60006020828403121561229657600080fd5b60006122a484828501612022565b91505092915050565b6122b681612fa9565b82525050565b6122c581612fbb565b82525050565b60006122d682612eab565b6122e08185612ec1565b93506122f081856020860161302c565b6122f9816131c7565b840191505092915050565b600061230f82612eb6565b6123198185612ed2565b935061232981856020860161302c565b612332816131c7565b840191505092915050565b600061234882612eb6565b6123528185612ee3565b935061236281856020860161302c565b80840191505092915050565b600061237b601483612ed2565b91507f4578636565647320746f6b656e20737570706c790000000000000000000000006000830152602082019050919050565b60006123bb603283612ed2565b91507f4552433732313a207472616e7366657220746f206e6f6e20455243373231526560008301527f63656976657220696d706c656d656e74657200000000000000000000000000006020830152604082019050919050565b6000612421602683612ed2565b91507f4f776e61626c653a206e6577206f776e657220697320746865207a65726f206160008301527f64647265737300000000000000000000000000000000000000000000000000006020830152604082019050919050565b6000612487601c83612ed2565b91507f4552433732313a20746f6b656e20616c7265616479206d696e746564000000006000830152602082019050919050565b60006124c7602483612ed2565b91507f4552433732313a207472616e7366657220746f20746865207a65726f2061646460008301527f72657373000000000000000000000000000000000000000000000000000000006020830152604082019050919050565b600061252d601983612ed2565b91507f4552433732313a20617070726f766520746f2063616c6c6572000000000000006000830152602082019050919050565b600061256d602c83612ed2565b91507f4552433732313a206f70657261746f7220717565727920666f72206e6f6e657860008301527f697374656e7420746f6b656e00000000000000000000000000000000000000006020830152604082019050919050565b60006125d3602183612ed2565b91507f4e6f7420656e6f756768204554482073656e743a20636865636b20707269636560008301527f2e000000000000000000000000000000000000000000000000000000000000006020830152604082019050919050565b6000612639603883612ed2565b91507f4552433732313a20617070726f76652063616c6c6572206973206e6f74206f7760008301527f6e6572206e6f7220617070726f76656420666f7220616c6c00000000000000006020830152604082019050919050565b600061269f602a83612ed2565b91507f4552433732313a2062616c616e636520717565727920666f7220746865207a6560008301527f726f2061646472657373000000000000000000000000000000000000000000006020830152604082019050919050565b6000612705602983612ed2565b91507f4552433732313a206f776e657220717565727920666f72206e6f6e657869737460008301527f656e7420746f6b656e00000000000000000000000000000000000000000000006020830152604082019050919050565b600061276b602e83612ed2565b91507f45524337323155524953746f726167653a2055524920736574206f66206e6f6e60008301527f6578697374656e7420746f6b656e0000000000000000000000000000000000006020830152604082019050919050565b60006127d1602083612ed2565b91507f4552433732313a206d696e7420746f20746865207a65726f20616464726573736000830152602082019050919050565b6000612811603183612ed2565b91507f45524337323155524953746f726167653a2055524920717565727920666f722060008301527f6e6f6e6578697374656e7420746f6b656e0000000000000000000000000000006020830152604082019050919050565b6000612877602c83612ed2565b91507f4552433732313a20617070726f76656420717565727920666f72206e6f6e657860008301527f697374656e7420746f6b656e00000000000000000000000000000000000000006020830152604082019050919050565b60006128dd602083612ed2565b91507f4f776e61626c653a2063616c6c6572206973206e6f7420746865206f776e65726000830152602082019050919050565b600061291d602983612ed2565b91507f4552433732313a207472616e73666572206f6620746f6b656e2074686174206960008301527f73206e6f74206f776e00000000000000000000000000000000000000000000006020830152604082019050919050565b6000612983602f83612ed2565b91507f4552433732314d657461646174613a2055524920717565727920666f72206e6f60008301527f6e6578697374656e7420746f6b656e00000000000000000000000000000000006020830152604082019050919050565b60006129e9602183612ed2565b91507f4552433732313a20617070726f76616c20746f2063757272656e74206f776e6560008301527f72000000000000000000000000000000000000000000000000000000000000006020830152604082019050919050565b6000612a4f603183612ed2565b91507f4552433732313a207472616e736665722063616c6c6572206973206e6f74206f60008301527f776e6572206e6f7220617070726f7665640000000000000000000000000000006020830152604082019050919050565b612ab181613013565b82525050565b6000612ac3828561233d565b9150612acf828461233d565b91508190509392505050565b6000602082019050612af060008301846122ad565b92915050565b6000608082019050612b0b60008301876122ad565b612b1860208301866122ad565b612b256040830185612aa8565b8181036060830152612b3781846122cb565b905095945050505050565b6000602082019050612b5760008301846122bc565b92915050565b60006020820190508181036000830152612b778184612304565b905092915050565b60006020820190508181036000830152612b988161236e565b9050919050565b60006020820190508181036000830152612bb8816123ae565b9050919050565b60006020820190508181036000830152612bd881612414565b9050919050565b60006020820190508181036000830152612bf88161247a565b9050919050565b60006020820190508181036000830152612c18816124ba565b9050919050565b60006020820190508181036000830152612c3881612520565b9050919050565b60006020820190508181036000830152612c5881612560565b9050919050565b60006020820190508181036000830152612c78816125c6565b9050919050565b60006020820190508181036000830152612c988161262c565b9050919050565b60006020820190508181036000830152612cb881612692565b9050919050565b60006020820190508181036000830152612cd8816126f8565b9050919050565b60006020820190508181036000830152612cf88161275e565b9050919050565b60006020820190508181036000830152612d18816127c4565b9050919050565b60006020820190508181036000830152612d3881612804565b9050919050565b60006020820190508181036000830152612d588161286a565b9050919050565b60006020820190508181036000830152612d78816128d0565b9050919050565b60006020820190508181036000830152612d9881612910565b9050919050565b60006020820190508181036000830152612db881612976565b9050919050565b60006020820190508181036000830152612dd8816129dc565b9050919050565b60006020820190508181036000830152612df881612a42565b9050919050565b6000602082019050612e146000830184612aa8565b92915050565b6000604051905081810181811067ffffffffffffffff82111715612e4157612e40613198565b5b8060405250919050565b600067ffffffffffffffff821115612e6657612e65613198565b5b601f19601f8301169050602081019050919050565b600067ffffffffffffffff821115612e9657612e95613198565b5b601f19601f8301169050602081019050919050565b600081519050919050565b600081519050919050565b600082825260208201905092915050565b600082825260208201905092915050565b600081905092915050565b6000612ef982613013565b9150612f0483613013565b9250827fffffffffffffffffffffffffffffffffffffffffffffffffffffffffffffffff03821115612f3957612f3861310b565b5b828201905092915050565b6000612f4f82613013565b9150612f5a83613013565b925082612f6a57612f6961313a565b5b828204905092915050565b6000612f8082613013565b9150612f8b83613013565b925082821015612f9e57612f9d61310b565b5b828203905092915050565b6000612fb482612ff3565b9050919050565b60008115159050919050565b60007fffffffff0000000000000000000000000000000000000000000000000000000082169050919050565b600073ffffffffffffffffffffffffffffffffffffffff82169050919050565b6000819050919050565b82818337600083830152505050565b60005b8381101561304a57808201518184015260208101905061302f565b83811115613059576000848401525b50505050565b6000600282049050600182168061307757607f821691505b6020821081141561308b5761308a613169565b5b50919050565b600061309c82613013565b91507fffffffffffffffffffffffffffffffffffffffffffffffffffffffffffffffff8214156130cf576130ce61310b565b5b600182019050919050565b60006130e582613013565b91506130f083613013565b925082613100576130ff61313a565b5b828206905092915050565b7f4e487b7100000000000000000000000000000000000000000000000000000000600052601160045260246000fd5b7f4e487b7100000000000000000000000000000000000000000000000000000000600052601260045260246000fd5b7f4e487b7100000000000000000000000000000000000000000000000000000000600052602260045260246000fd5b7f4e487b7100000000000000000000000000000000000000000000000000000000600052604160045260246000fd5b6000601f19601f8301169050919050565b6131e181612fa9565b81146131ec57600080fd5b50565b6131f881612fbb565b811461320357600080fd5b50565b61320f81612fc7565b811461321a57600080fd5b50565b61322681613013565b811461323157600080fd5b5056fe68747470733a2f2f676174657761792e70696e6174612e636c6f75642f697066732f516d5a48556237646a554c733278774759694b31344c345672546532547436626455316e773332375a44516e6b4da26469706673582212207bd0f6f231240872653ebd9e8990312337d96b7f2762ca7c7d21991a25ac13e964736f6c63430008000033",
  "linkReferences": {},
  "deployedLinkReferences": {}
}