{
  "_format": "hh-sol-artifact-1",
  "contractName": "demo",
  "sourceName": "contracts/demo.sol",
  "abi": [
    {
      "inputs": [],
      "stateMutability": "nonpayable",
      "type": "constructor"
    },
    {
      "anonymous": false,
      "inputs": [
        {
          "indexed": true,
          "internalType": "address",
          "name": "owner",
          "type": "address"
        },
        {
          "indexed": true,
          "internalType": "address",
          "name": "approved",
          "type": "address"
        },
        {
          "indexed": true,
          "internalType": "uint256",
          "name": "tokenId",
          "type": "uint256"
        }
      ],
      "name": "Approval",
      "type": "event"
    },
    {
      "anonymous": false,
      "inputs": [
        {
          "indexed": true,
          "internalType": "address",
          "name": "owner",
          "type": "address"
        },
        {
          "indexed": true,
          "internalType": "address",
          "name": "operator",
          "type": "address"
        },
        {
          "indexed": false,
          "internalType": "bool",
          "name": "approved",
          "type": "bool"
        }
      ],
      "name": "ApprovalForAll",
      "type": "event"
    },
    {
      "anonymous": false,
      "inputs": [
        {
          "indexed": true,
          "internalType": "address",
          "name": "previousOwner",
          "type": "address"
        },
        {
          "indexed": true,
          "internalType": "address",
          "name": "newOwner",
          "type": "address"
        }
      ],
      "name": "OwnershipTransferred",
      "type": "event"
    },
    {
      "anonymous": false,
      "inputs": [
        {
          "indexed": true,
          "internalType": "address",
          "name": "from",
          "type": "address"
        },
        {
          "indexed": true,
          "internalType": "address",
          "name": "to",
          "type": "address"
        },
        {
          "indexed": true,
          "internalType": "uint256",
          "name": "tokenId",
          "type": "uint256"
        }
      ],
      "name": "Transfer",
      "type": "event"
    },
    {
      "inputs": [
        {
          "internalType": "address",
          "name": "to",
          "type": "address"
        },
        {
          "internalType": "uint256",
          "name": "tokenId",
          "type": "uint256"
        }
      ],
      "name": "approve",
      "outputs": [],
      "stateMutability": "nonpayable",
      "type": "function"
    },
    {
      "inputs": [
        {
          "internalType": "address",
          "name": "owner",
          "type": "address"
        }
      ],
      "name": "balanceOf",
      "outputs": [
        {
          "internalType": "uint256",
          "name": "",
          "type": "uint256"
        }
      ],
      "stateMutability": "view",
      "type": "function"
    },
    {
      "inputs": [
        {
          "internalType": "uint256",
          "name": "tokenId",
          "type": "uint256"
        }
      ],
      "name": "claim",
      "outputs": [],
      "stateMutability": "nonpayable",
      "type": "function"
    },
    {
      "inputs": [
        {
          "internalType": "uint256",
          "name": "tokenId",
          "type": "uint256"
        }
      ],
      "name": "getApproved",
      "outputs": [
        {
          "internalType": "address",
          "name": "",
          "type": "address"
        }
      ],
      "stateMutability": "view",
      "type": "function"
    },
    {
      "inputs": [
        {
          "internalType": "address",
          "name": "owner",
          "type": "address"
        },
        {
          "internalType": "address",
          "name": "operator",
          "type": "address"
        }
      ],
      "name": "isApprovedForAll",
      "outputs": [
        {
          "internalType": "bool",
          "name": "",
          "type": "bool"
        }
      ],
      "stateMutability": "view",
      "type": "function"
    },
    {
      "inputs": [
        {
          "internalType": "uint256",
          "name": "tokenId",
          "type": "uint256"
        },
        {
          "internalType": "uint256",
          "name": "amount",
          "type": "uint256"
        }
      ],
      "name": "mint",
      "outputs": [],
      "stateMutability": "payable",
      "type": "function"
    },
    {
      "inputs": [
        {
          "internalType": "address",
          "name": "recipient",
          "type": "address"
        },
        {
          "internalType": "string",
          "name": "tokenURI",
          "type": "string"
        }
      ],
      "name": "mintNFT",
      "outputs": [
        {
          "internalType": "uint256",
          "name": "",
          "type": "uint256"
        }
      ],
      "stateMutability": "nonpayable",
      "type": "function"
    },
    {
      "inputs": [],
      "name": "name",
      "outputs": [
        {
          "internalType": "string",
          "name": "",
          "type": "string"
        }
      ],
      "stateMutability": "view",
      "type": "function"
    },
    {
      "inputs": [],
      "name": "owner",
      "outputs": [
        {
          "internalType": "address",
          "name": "",
          "type": "address"
        }
      ],
      "stateMutability": "view",
      "type": "function"
    },
    {
      "inputs": [
        {
          "internalType": "uint256",
          "name": "tokenId",
          "type": "uint256"
        }
      ],
      "name": "ownerOf",
      "outputs": [
        {
          "internalType": "address",
          "name": "",
          "type": "address"
        }
      ],
      "stateMutability": "view",
      "type": "function"
    },
    {
      "inputs": [],
      "name": "renounceOwnership",
      "outputs": [],
      "stateMutability": "nonpayable",
      "type": "function"
    },
    {
      "inputs": [
        {
          "internalType": "address",
          "name": "from",
          "type": "address"
        },
        {
          "internalType": "address",
          "name": "to",
          "type": "address"
        },
        {
          "internalType": "uint256",
          "name": "tokenId",
          "type": "uint256"
        }
      ],
      "name": "safeTransferFrom",
      "outputs": [],
      "stateMutability": "nonpayable",
      "type": "function"
    },
    {
      "inputs": [
        {
          "internalType": "address",
          "name": "from",
          "type": "address"
        },
        {
          "internalType": "address",
          "name": "to",
          "type": "address"
        },
        {
          "internalType": "uint256",
          "name": "tokenId",
          "type": "uint256"
        },
        {
          "internalType": "bytes",
          "name": "_data",
          "type": "bytes"
        }
      ],
      "name": "safeTransferFrom",
      "outputs": [],
      "stateMutability": "nonpayable",
      "type": "function"
    },
    {
      "inputs": [
        {
          "internalType": "address",
          "name": "operator",
          "type": "address"
        },
        {
          "internalType": "bool",
          "name": "approved",
          "type": "bool"
        }
      ],
      "name": "setApprovalForAll",
      "outputs": [],
      "stateMutability": "nonpayable",
      "type": "function"
    },
    {
      "inputs": [
        {
          "internalType": "bytes4",
          "name": "interfaceId",
          "type": "bytes4"
        }
      ],
      "name": "supportsInterface",
      "outputs": [
        {
          "internalType": "bool",
          "name": "",
          "type": "bool"
        }
      ],
      "stateMutability": "view",
      "type": "function"
    },
    {
      "inputs": [],
      "name": "symbol",
      "outputs": [
        {
          "internalType": "string",
          "name": "",
          "type": "string"
        }
      ],
      "stateMutability": "view",
      "type": "function"
    },
    {
      "inputs": [
        {
          "internalType": "uint256",
          "name": "tokenId",
          "type": "uint256"
        }
      ],
      "name": "tokenURI",
      "outputs": [
        {
          "internalType": "string",
          "name": "",
          "type": "string"
        }
      ],
      "stateMutability": "view",
      "type": "function"
    },
    {
      "inputs": [
        {
          "internalType": "address",
          "name": "from",
          "type": "address"
        },
        {
          "internalType": "address",
          "name": "to",
          "type": "address"
        },
        {
          "internalType": "uint256",
          "name": "tokenId",
          "type": "uint256"
        }
      ],
      "name": "transferFrom",
      "outputs": [],
      "stateMutability": "nonpayable",
      "type": "function"
    },
    {
      "inputs": [
        {
          "internalType": "address",
          "name": "newOwner",
          "type": "address"
        }
      ],
      "name": "transferOwnership",
      "outputs": [],
      "stateMutability": "nonpayable",
      "type": "function"
    }
  ],
  "bytecode": "0x60806040523480156200001157600080fd5b506040518060400160405280600481526020017f64656d6f000000000000000000000000000000000000000000000000000000008152506040518060400160405280600281526020017f646d000000000000000000000000000000000000000000000000000000000000815250816000908051906020019062000096929190620001a6565b508060019080519060200190620000af929190620001a6565b505050620000d2620000c6620000d860201b60201c565b620000e060201b60201c565b620002bb565b600033905090565b6000600660009054906101000a900473ffffffffffffffffffffffffffffffffffffffff16905081600660006101000a81548173ffffffffffffffffffffffffffffffffffffffff021916908373ffffffffffffffffffffffffffffffffffffffff1602179055508173ffffffffffffffffffffffffffffffffffffffff168173ffffffffffffffffffffffffffffffffffffffff167f8be0079c531659141344cd1fd0a4f28419497f9722a3daafe3b4186f6b6457e060405160405180910390a35050565b828054620001b49062000256565b90600052602060002090601f016020900481019282620001d8576000855562000224565b82601f10620001f357805160ff191683800117855562000224565b8280016001018555821562000224579182015b828111156200022357825182559160200191906001019062000206565b5b50905062000233919062000237565b5090565b5b808211156200025257600081600090555060010162000238565b5090565b600060028204905060018216806200026f57607f821691505b602082108114156200028657620002856200028c565b5b50919050565b7f4e487b7100000000000000000000000000000000000000000000000000000000600052602260045260246000fd5b612f2780620002cb6000396000f3fe6080604052600436106101145760003560e01c806370a08231116100a0578063b88d4fde11610064578063b88d4fde1461038e578063c87b56dd146103b7578063e985e9c5146103f4578063eacabe1414610431578063f2fde38b1461046e57610114565b806370a08231146102bb578063715018a6146102f85780638da5cb5b1461030f57806395d89b411461033a578063a22cb4651461036557610114565b80631b2ef1ca116100e75780631b2ef1ca146101e757806323b872dd14610203578063379607f51461022c57806342842e0e146102555780636352211e1461027e57610114565b806301ffc9a71461011957806306fdde0314610156578063081812fc14610181578063095ea7b3146101be575b600080fd5b34801561012557600080fd5b50610140600480360381019061013b9190611fbf565b610497565b60405161014d919061283f565b60405180910390f35b34801561016257600080fd5b5061016b610579565b604051610178919061285a565b60405180910390f35b34801561018d57600080fd5b506101a860048036038101906101a39190612011565b61060b565b6040516101b591906127d8565b60405180910390f35b3480156101ca57600080fd5b506101e560048036038101906101e09190611f83565b610690565b005b61020160048036038101906101fc919061203a565b6107a8565b005b34801561020f57600080fd5b5061022a60048036038101906102259190611e29565b610857565b005b34801561023857600080fd5b50610253600480360381019061024e9190612011565b6108b7565b005b34801561026157600080fd5b5061027c60048036038101906102779190611e29565b61091b565b005b34801561028a57600080fd5b506102a560048036038101906102a09190612011565b61093b565b6040516102b291906127d8565b60405180910390f35b3480156102c757600080fd5b506102e260048036038101906102dd9190611dc4565b6109ed565b6040516102ef9190612abc565b60405180910390f35b34801561030457600080fd5b5061030d610aa5565b005b34801561031b57600080fd5b50610324610b2d565b60405161033191906127d8565b60405180910390f35b34801561034657600080fd5b5061034f610b57565b60405161035c919061285a565b60405180910390f35b34801561037157600080fd5b5061038c60048036038101906103879190611ef3565b610be9565b005b34801561039a57600080fd5b506103b560048036038101906103b09190611e78565b610d6a565b005b3480156103c357600080fd5b506103de60048036038101906103d99190612011565b610dcc565b6040516103eb919061285a565b60405180910390f35b34801561040057600080fd5b5061041b60048036038101906104169190611ded565b610e73565b604051610428919061283f565b60405180910390f35b34801561043d57600080fd5b5061045860048036038101906104539190611f2f565b610f07565b6040516104659190612abc565b60405180910390f35b34801561047a57600080fd5b5061049560048036038101906104909190611dc4565b610fc2565b005b60007f80ac58cd000000000000000000000000000000000000000000000000000000007bffffffffffffffffffffffffffffffffffffffffffffffffffffffff1916827bffffffffffffffffffffffffffffffffffffffffffffffffffffffff1916148061056257507f5b5e139f000000000000000000000000000000000000000000000000000000007bffffffffffffffffffffffffffffffffffffffffffffffffffffffff1916827bffffffffffffffffffffffffffffffffffffffffffffffffffffffff1916145b806105725750610571826110ba565b5b9050919050565b60606000805461058890612d1c565b80601f01602080910402602001604051908101604052809291908181526020018280546105b490612d1c565b80156106015780601f106105d657610100808354040283529160200191610601565b820191906000526020600020905b8154815290600101906020018083116105e457829003601f168201915b5050505050905090565b600061061682611124565b610655576040517f08c379a000000000000000000000000000000000000000000000000000000000815260040161064c906129fc565b60405180910390fd5b6004600083815260200190815260200160002060009054906101000a900473ffffffffffffffffffffffffffffffffffffffff169050919050565b600061069b8261093b565b90508073ffffffffffffffffffffffffffffffffffffffff168373ffffffffffffffffffffffffffffffffffffffff16141561070c576040517f08c379a000000000000000000000000000000000000000000000000000000000815260040161070390612a7c565b60405180910390fd5b8073ffffffffffffffffffffffffffffffffffffffff1661072b611190565b73ffffffffffffffffffffffffffffffffffffffff16148061075a575061075981610754611190565b610e73565b5b610799576040517f08c379a00000000000000000000000000000000000000000000000000000000081526004016107909061297c565b60405180910390fd5b6107a38383611198565b505050565b6000821180156107b9575061138882105b6107f8576040517f08c379a00000000000000000000000000000000000000000000000000000000081526004016107ef9061287c565b60405180910390fd5b66b1a2bc2ec50000811015610842576040517f08c379a00000000000000000000000000000000000000000000000000000000081526004016108399061295c565b60405180910390fd5b61085361084d611190565b83611251565b5050565b610868610862611190565b8261126f565b6108a7576040517f08c379a000000000000000000000000000000000000000000000000000000000815260040161089e90612a9c565b60405180910390fd5b6108b283838361134d565b505050565b6000811180156108c8575061138881105b610907576040517f08c379a00000000000000000000000000000000000000000000000000000000081526004016108fe9061287c565b60405180910390fd5b610918610912611190565b82611251565b50565b61093683838360405180602001604052806000815250610d6a565b505050565b6000806002600084815260200190815260200160002060009054906101000a900473ffffffffffffffffffffffffffffffffffffffff169050600073ffffffffffffffffffffffffffffffffffffffff168173ffffffffffffffffffffffffffffffffffffffff1614156109e4576040517f08c379a00000000000000000000000000000000000000000000000000000000081526004016109db906129bc565b60405180910390fd5b80915050919050565b60008073ffffffffffffffffffffffffffffffffffffffff168273ffffffffffffffffffffffffffffffffffffffff161415610a5e576040517f08c379a0000000000000000000000000000000000000000000000000000000008152600401610a559061299c565b60405180910390fd5b600360008373ffffffffffffffffffffffffffffffffffffffff1673ffffffffffffffffffffffffffffffffffffffff168152602001908152602001600020549050919050565b610aad611190565b73ffffffffffffffffffffffffffffffffffffffff16610acb610b2d565b73ffffffffffffffffffffffffffffffffffffffff1614610b21576040517f08c379a0000000000000000000000000000000000000000000000000000000008152600401610b1890612a1c565b60405180910390fd5b610b2b60006115a9565b565b6000600660009054906101000a900473ffffffffffffffffffffffffffffffffffffffff16905090565b606060018054610b6690612d1c565b80601f0160208091040260200160405190810160405280929190818152602001828054610b9290612d1c565b8015610bdf5780601f10610bb457610100808354040283529160200191610bdf565b820191906000526020600020905b815481529060010190602001808311610bc257829003601f168201915b5050505050905090565b610bf1611190565b73ffffffffffffffffffffffffffffffffffffffff168273ffffffffffffffffffffffffffffffffffffffff161415610c5f576040517f08c379a0000000000000000000000000000000000000000000000000000000008152600401610c569061291c565b60405180910390fd5b8060056000610c6c611190565b73ffffffffffffffffffffffffffffffffffffffff1673ffffffffffffffffffffffffffffffffffffffff16815260200190815260200160002060008473ffffffffffffffffffffffffffffffffffffffff1673ffffffffffffffffffffffffffffffffffffffff16815260200190815260200160002060006101000a81548160ff0219169083151502179055508173ffffffffffffffffffffffffffffffffffffffff16610d19611190565b73ffffffffffffffffffffffffffffffffffffffff167f17307eab39ab6107e8899845ad3d59bd9653f200f220920489ca2b5937696c3183604051610d5e919061283f565b60405180910390a35050565b610d7b610d75611190565b8361126f565b610dba576040517f08c379a0000000000000000000000000000000000000000000000000000000008152600401610db190612a9c565b60405180910390fd5b610dc68484848461166f565b50505050565b6060610dd782611124565b610e16576040517f08c379a0000000000000000000000000000000000000000000000000000000008152600401610e0d90612a5c565b60405180910390fd5b6000610e206116cb565b90506000815111610e405760405180602001604052806000815250610e6b565b80610e4a846116e2565b604051602001610e5b9291906127b4565b6040516020818303038152906040525b915050919050565b6000600560008473ffffffffffffffffffffffffffffffffffffffff1673ffffffffffffffffffffffffffffffffffffffff16815260200190815260200160002060008373ffffffffffffffffffffffffffffffffffffffff1673ffffffffffffffffffffffffffffffffffffffff16815260200190815260200160002060009054906101000a900460ff16905092915050565b6000610f11611190565b73ffffffffffffffffffffffffffffffffffffffff16610f2f610b2d565b73ffffffffffffffffffffffffffffffffffffffff1614610f85576040517f08c379a0000000000000000000000000000000000000000000000000000000008152600401610f7c90612a1c565b60405180910390fd5b610f8f600761188f565b6000610f9b60076118a5565b9050610fae8166b1a2bc2ec500006107a8565b610fb88482611251565b8091505092915050565b610fca611190565b73ffffffffffffffffffffffffffffffffffffffff16610fe8610b2d565b73ffffffffffffffffffffffffffffffffffffffff161461103e576040517f08c379a000000000000000000000000000000000000000000000000000000000815260040161103590612a1c565b60405180910390fd5b600073ffffffffffffffffffffffffffffffffffffffff168173ffffffffffffffffffffffffffffffffffffffff1614156110ae576040517f08c379a00000000000000000000000000000000000000000000000000000000081526004016110a5906128bc565b60405180910390fd5b6110b7816115a9565b50565b60007f01ffc9a7000000000000000000000000000000000000000000000000000000007bffffffffffffffffffffffffffffffffffffffffffffffffffffffff1916827bffffffffffffffffffffffffffffffffffffffffffffffffffffffff1916149050919050565b60008073ffffffffffffffffffffffffffffffffffffffff166002600084815260200190815260200160002060009054906101000a900473ffffffffffffffffffffffffffffffffffffffff1673ffffffffffffffffffffffffffffffffffffffff1614159050919050565b600033905090565b816004600083815260200190815260200160002060006101000a81548173ffffffffffffffffffffffffffffffffffffffff021916908373ffffffffffffffffffffffffffffffffffffffff160217905550808273ffffffffffffffffffffffffffffffffffffffff1661120b8361093b565b73ffffffffffffffffffffffffffffffffffffffff167f8c5be1e5ebec7d5bd14f71427d1e84f3dd0314c0f7b2291e5b200ac8c7c3b92560405160405180910390a45050565b61126b8282604051806020016040528060008152506118b3565b5050565b600061127a82611124565b6112b9576040517f08c379a00000000000000000000000000000000000000000000000000000000081526004016112b09061293c565b60405180910390fd5b60006112c48361093b565b90508073ffffffffffffffffffffffffffffffffffffffff168473ffffffffffffffffffffffffffffffffffffffff16148061133357508373ffffffffffffffffffffffffffffffffffffffff1661131b8461060b565b73ffffffffffffffffffffffffffffffffffffffff16145b8061134457506113438185610e73565b5b91505092915050565b8273ffffffffffffffffffffffffffffffffffffffff1661136d8261093b565b73ffffffffffffffffffffffffffffffffffffffff16146113c3576040517f08c379a00000000000000000000000000000000000000000000000000000000081526004016113ba90612a3c565b60405180910390fd5b600073ffffffffffffffffffffffffffffffffffffffff168273ffffffffffffffffffffffffffffffffffffffff161415611433576040517f08c379a000000000000000000000000000000000000000000000000000000000815260040161142a906128fc565b60405180910390fd5b61143e83838361190e565b611449600082611198565b6001600360008573ffffffffffffffffffffffffffffffffffffffff1673ffffffffffffffffffffffffffffffffffffffff16815260200190815260200160002060008282546114999190612c32565b925050819055506001600360008473ffffffffffffffffffffffffffffffffffffffff1673ffffffffffffffffffffffffffffffffffffffff16815260200190815260200160002060008282546114f09190612bab565b92505081905550816002600083815260200190815260200160002060006101000a81548173ffffffffffffffffffffffffffffffffffffffff021916908373ffffffffffffffffffffffffffffffffffffffff160217905550808273ffffffffffffffffffffffffffffffffffffffff168473ffffffffffffffffffffffffffffffffffffffff167fddf252ad1be2c89b69c2b068fc378daa952ba7f163c4a11628f55a4df523b3ef60405160405180910390a4505050565b6000600660009054906101000a900473ffffffffffffffffffffffffffffffffffffffff16905081600660006101000a81548173ffffffffffffffffffffffffffffffffffffffff021916908373ffffffffffffffffffffffffffffffffffffffff1602179055508173ffffffffffffffffffffffffffffffffffffffff168173ffffffffffffffffffffffffffffffffffffffff167f8be0079c531659141344cd1fd0a4f28419497f9722a3daafe3b4186f6b6457e060405160405180910390a35050565b61167a84848461134d565b61168684848484611913565b6116c5576040517f08c379a00000000000000000000000000000000000000000000000000000000081526004016116bc9061289c565b60405180910390fd5b50505050565b606060405180602001604052806000815250905090565b6060600082141561172a576040518060400160405280600181526020017f3000000000000000000000000000000000000000000000000000000000000000815250905061188a565b600082905060005b6000821461175c57808061174590612d4e565b915050600a826117559190612c01565b9150611732565b60008167ffffffffffffffff81111561179e577f4e487b7100000000000000000000000000000000000000000000000000000000600052604160045260246000fd5b6040519080825280601f01601f1916602001820160405280156117d05781602001600182028036833780820191505090505b5090505b60008514611883576001826117e99190612c32565b9150600a856117f89190612d97565b60306118049190612bab565b60f81b818381518110611840577f4e487b7100000000000000000000000000000000000000000000000000000000600052603260045260246000fd5b60200101907effffffffffffffffffffffffffffffffffffffffffffffffffffffffffffff1916908160001a905350600a8561187c9190612c01565b94506117d4565b8093505050505b919050565b6001816000016000828254019250508190555050565b600081600001549050919050565b6118bd8383611aaa565b6118ca6000848484611913565b611909576040517f08c379a00000000000000000000000000000000000000000000000000000000081526004016119009061289c565b60405180910390fd5b505050565b505050565b60006119348473ffffffffffffffffffffffffffffffffffffffff16611c78565b15611a9d578373ffffffffffffffffffffffffffffffffffffffff1663150b7a0261195d611190565b8786866040518563ffffffff1660e01b815260040161197f94939291906127f3565b602060405180830381600087803b15801561199957600080fd5b505af19250505080156119ca57506040513d601f19601f820116820180604052508101906119c79190611fe8565b60015b611a4d573d80600081146119fa576040519150601f19603f3d011682016040523d82523d6000602084013e6119ff565b606091505b50600081511415611a45576040517f08c379a0000000000000000000000000000000000000000000000000000000008152600401611a3c9061289c565b60405180910390fd5b805181602001fd5b63150b7a0260e01b7bffffffffffffffffffffffffffffffffffffffffffffffffffffffff1916817bffffffffffffffffffffffffffffffffffffffffffffffffffffffff191614915050611aa2565b600190505b949350505050565b600073ffffffffffffffffffffffffffffffffffffffff168273ffffffffffffffffffffffffffffffffffffffff161415611b1a576040517f08c379a0000000000000000000000000000000000000000000000000000000008152600401611b11906129dc565b60405180910390fd5b611b2381611124565b15611b63576040517f08c379a0000000000000000000000000000000000000000000000000000000008152600401611b5a906128dc565b60405180910390fd5b611b6f6000838361190e565b6001600360008473ffffffffffffffffffffffffffffffffffffffff1673ffffffffffffffffffffffffffffffffffffffff1681526020019081526020016000206000828254611bbf9190612bab565b92505081905550816002600083815260200190815260200160002060006101000a81548173ffffffffffffffffffffffffffffffffffffffff021916908373ffffffffffffffffffffffffffffffffffffffff160217905550808273ffffffffffffffffffffffffffffffffffffffff16600073ffffffffffffffffffffffffffffffffffffffff167fddf252ad1be2c89b69c2b068fc378daa952ba7f163c4a11628f55a4df523b3ef60405160405180910390a45050565b600080823b905060008111915050919050565b6000611c9e611c9984612b08565b612ad7565b905082815260208101848484011115611cb657600080fd5b611cc1848285612cda565b509392505050565b6000611cdc611cd784612b38565b612ad7565b905082815260208101848484011115611cf457600080fd5b611cff848285612cda565b509392505050565b600081359050611d1681612e95565b92915050565b600081359050611d2b81612eac565b92915050565b600081359050611d4081612ec3565b92915050565b600081519050611d5581612ec3565b92915050565b600082601f830112611d6c57600080fd5b8135611d7c848260208601611c8b565b91505092915050565b600082601f830112611d9657600080fd5b8135611da6848260208601611cc9565b91505092915050565b600081359050611dbe81612eda565b92915050565b600060208284031215611dd657600080fd5b6000611de484828501611d07565b91505092915050565b60008060408385031215611e0057600080fd5b6000611e0e85828601611d07565b9250506020611e1f85828601611d07565b9150509250929050565b600080600060608486031215611e3e57600080fd5b6000611e4c86828701611d07565b9350506020611e5d86828701611d07565b9250506040611e6e86828701611daf565b9150509250925092565b60008060008060808587031215611e8e57600080fd5b6000611e9c87828801611d07565b9450506020611ead87828801611d07565b9350506040611ebe87828801611daf565b925050606085013567ffffffffffffffff811115611edb57600080fd5b611ee787828801611d5b565b91505092959194509250565b60008060408385031215611f0657600080fd5b6000611f1485828601611d07565b9250506020611f2585828601611d1c565b9150509250929050565b60008060408385031215611f4257600080fd5b6000611f5085828601611d07565b925050602083013567ffffffffffffffff811115611f6d57600080fd5b611f7985828601611d85565b9150509250929050565b60008060408385031215611f9657600080fd5b6000611fa485828601611d07565b9250506020611fb585828601611daf565b9150509250929050565b600060208284031215611fd157600080fd5b6000611fdf84828501611d31565b91505092915050565b600060208284031215611ffa57600080fd5b600061200884828501611d46565b91505092915050565b60006020828403121561202357600080fd5b600061203184828501611daf565b91505092915050565b6000806040838503121561204d57600080fd5b600061205b85828601611daf565b925050602061206c85828601611daf565b9150509250929050565b61207f81612c66565b82525050565b61208e81612c78565b82525050565b600061209f82612b68565b6120a98185612b7e565b93506120b9818560208601612ce9565b6120c281612e84565b840191505092915050565b60006120d882612b73565b6120e28185612b8f565b93506120f2818560208601612ce9565b6120fb81612e84565b840191505092915050565b600061211182612b73565b61211b8185612ba0565b935061212b818560208601612ce9565b80840191505092915050565b6000612144601483612b8f565b91507f4578636565647320746f6b656e20737570706c790000000000000000000000006000830152602082019050919050565b6000612184603283612b8f565b91507f4552433732313a207472616e7366657220746f206e6f6e20455243373231526560008301527f63656976657220696d706c656d656e74657200000000000000000000000000006020830152604082019050919050565b60006121ea602683612b8f565b91507f4f776e61626c653a206e6577206f776e657220697320746865207a65726f206160008301527f64647265737300000000000000000000000000000000000000000000000000006020830152604082019050919050565b6000612250601c83612b8f565b91507f4552433732313a20746f6b656e20616c7265616479206d696e746564000000006000830152602082019050919050565b6000612290602483612b8f565b91507f4552433732313a207472616e7366657220746f20746865207a65726f2061646460008301527f72657373000000000000000000000000000000000000000000000000000000006020830152604082019050919050565b60006122f6601983612b8f565b91507f4552433732313a20617070726f766520746f2063616c6c6572000000000000006000830152602082019050919050565b6000612336602c83612b8f565b91507f4552433732313a206f70657261746f7220717565727920666f72206e6f6e657860008301527f697374656e7420746f6b656e00000000000000000000000000000000000000006020830152604082019050919050565b600061239c602183612b8f565b91507f4e6f7420656e6f756768204554482073656e743a20636865636b20707269636560008301527f2e000000000000000000000000000000000000000000000000000000000000006020830152604082019050919050565b6000612402603883612b8f565b91507f4552433732313a20617070726f76652063616c6c6572206973206e6f74206f7760008301527f6e6572206e6f7220617070726f76656420666f7220616c6c00000000000000006020830152604082019050919050565b6000612468602a83612b8f565b91507f4552433732313a2062616c616e636520717565727920666f7220746865207a6560008301527f726f2061646472657373000000000000000000000000000000000000000000006020830152604082019050919050565b60006124ce602983612b8f565b91507f4552433732313a206f776e657220717565727920666f72206e6f6e657869737460008301527f656e7420746f6b656e00000000000000000000000000000000000000000000006020830152604082019050919050565b6000612534602083612b8f565b91507f4552433732313a206d696e7420746f20746865207a65726f20616464726573736000830152602082019050919050565b6000612574602c83612b8f565b91507f4552433732313a20617070726f76656420717565727920666f72206e6f6e657860008301527f697374656e7420746f6b656e00000000000000000000000000000000000000006020830152604082019050919050565b60006125da602083612b8f565b91507f4f776e61626c653a2063616c6c6572206973206e6f7420746865206f776e65726000830152602082019050919050565b600061261a602983612b8f565b91507f4552433732313a207472616e73666572206f6620746f6b656e2074686174206960008301527f73206e6f74206f776e00000000000000000000000000000000000000000000006020830152604082019050919050565b6000612680602f83612b8f565b91507f4552433732314d657461646174613a2055524920717565727920666f72206e6f60008301527f6e6578697374656e7420746f6b656e00000000000000000000000000000000006020830152604082019050919050565b60006126e6602183612b8f565b91507f4552433732313a20617070726f76616c20746f2063757272656e74206f776e6560008301527f72000000000000000000000000000000000000000000000000000000000000006020830152604082019050919050565b600061274c603183612b8f565b91507f4552433732313a207472616e736665722063616c6c6572206973206e6f74206f60008301527f776e6572206e6f7220617070726f7665640000000000000000000000000000006020830152604082019050919050565b6127ae81612cd0565b82525050565b60006127c08285612106565b91506127cc8284612106565b91508190509392505050565b60006020820190506127ed6000830184612076565b92915050565b60006080820190506128086000830187612076565b6128156020830186612076565b61282260408301856127a5565b81810360608301526128348184612094565b905095945050505050565b60006020820190506128546000830184612085565b92915050565b6000602082019050818103600083015261287481846120cd565b905092915050565b6000602082019050818103600083015261289581612137565b9050919050565b600060208201905081810360008301526128b581612177565b9050919050565b600060208201905081810360008301526128d5816121dd565b9050919050565b600060208201905081810360008301526128f581612243565b9050919050565b6000602082019050818103600083015261291581612283565b9050919050565b60006020820190508181036000830152612935816122e9565b9050919050565b6000602082019050818103600083015261295581612329565b9050919050565b600060208201905081810360008301526129758161238f565b9050919050565b60006020820190508181036000830152612995816123f5565b9050919050565b600060208201905081810360008301526129b58161245b565b9050919050565b600060208201905081810360008301526129d5816124c1565b9050919050565b600060208201905081810360008301526129f581612527565b9050919050565b60006020820190508181036000830152612a1581612567565b9050919050565b60006020820190508181036000830152612a35816125cd565b9050919050565b60006020820190508181036000830152612a558161260d565b9050919050565b60006020820190508181036000830152612a7581612673565b9050919050565b60006020820190508181036000830152612a95816126d9565b9050919050565b60006020820190508181036000830152612ab58161273f565b9050919050565b6000602082019050612ad160008301846127a5565b92915050565b6000604051905081810181811067ffffffffffffffff82111715612afe57612afd612e55565b5b8060405250919050565b600067ffffffffffffffff821115612b2357612b22612e55565b5b601f19601f8301169050602081019050919050565b600067ffffffffffffffff821115612b5357612b52612e55565b5b601f19601f8301169050602081019050919050565b600081519050919050565b600081519050919050565b600082825260208201905092915050565b600082825260208201905092915050565b600081905092915050565b6000612bb682612cd0565b9150612bc183612cd0565b9250827fffffffffffffffffffffffffffffffffffffffffffffffffffffffffffffffff03821115612bf657612bf5612dc8565b5b828201905092915050565b6000612c0c82612cd0565b9150612c1783612cd0565b925082612c2757612c26612df7565b5b828204905092915050565b6000612c3d82612cd0565b9150612c4883612cd0565b925082821015612c5b57612c5a612dc8565b5b828203905092915050565b6000612c7182612cb0565b9050919050565b60008115159050919050565b60007fffffffff0000000000000000000000000000000000000000000000000000000082169050919050565b600073ffffffffffffffffffffffffffffffffffffffff82169050919050565b6000819050919050565b82818337600083830152505050565b60005b83811015612d07578082015181840152602081019050612cec565b83811115612d16576000848401525b50505050565b60006002820490506001821680612d3457607f821691505b60208210811415612d4857612d47612e26565b5b50919050565b6000612d5982612cd0565b91507fffffffffffffffffffffffffffffffffffffffffffffffffffffffffffffffff821415612d8c57612d8b612dc8565b5b600182019050919050565b6000612da282612cd0565b9150612dad83612cd0565b925082612dbd57612dbc612df7565b5b828206905092915050565b7f4e487b7100000000000000000000000000000000000000000000000000000000600052601160045260246000fd5b7f4e487b7100000000000000000000000000000000000000000000000000000000600052601260045260246000fd5b7f4e487b7100000000000000000000000000000000000000000000000000000000600052602260045260246000fd5b7f4e487b7100000000000000000000000000000000000000000000000000000000600052604160045260246000fd5b6000601f19601f8301169050919050565b612e9e81612c66565b8114612ea957600080fd5b50565b612eb581612c78565b8114612ec057600080fd5b50565b612ecc81612c84565b8114612ed757600080fd5b50565b612ee381612cd0565b8114612eee57600080fd5b5056fea26469706673582212204448d095e0d6486c192542ecb2f73137cb8414cf9f84e5e95ff25aedd16ab7c764736f6c63430008000033",
  "linkReferences": {},
  "deployedLinkReferences": {}
}