{
  "_format": "hh-sol-artifact-1",
  "contractName": "demo",
  "sourceName": "contracts/demo.sol",
  "abi": [
    {
      "inputs": [],
      "stateMutability": "nonpayable",
      "type": "constructor"
    },
    {
      "anonymous": false,
      "inputs": [
        {
          "indexed": true,
          "internalType": "address",
          "name": "owner",
          "type": "address"
        },
        {
          "indexed": true,
          "internalType": "address",
          "name": "approved",
          "type": "address"
        },
        {
          "indexed": true,
          "internalType": "uint256",
          "name": "tokenId",
          "type": "uint256"
        }
      ],
      "name": "Approval",
      "type": "event"
    },
    {
      "anonymous": false,
      "inputs": [
        {
          "indexed": true,
          "internalType": "address",
          "name": "owner",
          "type": "address"
        },
        {
          "indexed": true,
          "internalType": "address",
          "name": "operator",
          "type": "address"
        },
        {
          "indexed": false,
          "internalType": "bool",
          "name": "approved",
          "type": "bool"
        }
      ],
      "name": "ApprovalForAll",
      "type": "event"
    },
    {
      "anonymous": false,
      "inputs": [
        {
          "indexed": true,
          "internalType": "address",
          "name": "previousOwner",
          "type": "address"
        },
        {
          "indexed": true,
          "internalType": "address",
          "name": "newOwner",
          "type": "address"
        }
      ],
      "name": "OwnershipTransferred",
      "type": "event"
    },
    {
      "anonymous": false,
      "inputs": [
        {
          "indexed": true,
          "internalType": "address",
          "name": "from",
          "type": "address"
        },
        {
          "indexed": true,
          "internalType": "address",
          "name": "to",
          "type": "address"
        },
        {
          "indexed": true,
          "internalType": "uint256",
          "name": "tokenId",
          "type": "uint256"
        }
      ],
      "name": "Transfer",
      "type": "event"
    },
    {
      "inputs": [
        {
          "internalType": "address",
          "name": "to",
          "type": "address"
        },
        {
          "internalType": "uint256",
          "name": "tokenId",
          "type": "uint256"
        }
      ],
      "name": "approve",
      "outputs": [],
      "stateMutability": "nonpayable",
      "type": "function"
    },
    {
      "inputs": [
        {
          "internalType": "address",
          "name": "owner",
          "type": "address"
        }
      ],
      "name": "balanceOf",
      "outputs": [
        {
          "internalType": "uint256",
          "name": "",
          "type": "uint256"
        }
      ],
      "stateMutability": "view",
      "type": "function"
    },
    {
      "inputs": [
        {
          "internalType": "uint256",
          "name": "tokenId",
          "type": "uint256"
        }
      ],
      "name": "getApproved",
      "outputs": [
        {
          "internalType": "address",
          "name": "",
          "type": "address"
        }
      ],
      "stateMutability": "view",
      "type": "function"
    },
    {
      "inputs": [
        {
          "internalType": "address",
          "name": "owner",
          "type": "address"
        },
        {
          "internalType": "address",
          "name": "operator",
          "type": "address"
        }
      ],
      "name": "isApprovedForAll",
      "outputs": [
        {
          "internalType": "bool",
          "name": "",
          "type": "bool"
        }
      ],
      "stateMutability": "view",
      "type": "function"
    },
    {
      "inputs": [
        {
          "internalType": "address",
          "name": "recipient",
          "type": "address"
        }
      ],
      "name": "mintNFT",
      "outputs": [
        {
          "internalType": "uint256",
          "name": "",
          "type": "uint256"
        }
      ],
      "stateMutability": "payable",
      "type": "function"
    },
    {
      "inputs": [],
      "name": "name",
      "outputs": [
        {
          "internalType": "string",
          "name": "",
          "type": "string"
        }
      ],
      "stateMutability": "view",
      "type": "function"
    },
    {
      "inputs": [],
      "name": "owner",
      "outputs": [
        {
          "internalType": "address",
          "name": "",
          "type": "address"
        }
      ],
      "stateMutability": "view",
      "type": "function"
    },
    {
      "inputs": [
        {
          "internalType": "uint256",
          "name": "tokenId",
          "type": "uint256"
        }
      ],
      "name": "ownerOf",
      "outputs": [
        {
          "internalType": "address",
          "name": "",
          "type": "address"
        }
      ],
      "stateMutability": "view",
      "type": "function"
    },
    {
      "inputs": [],
      "name": "renounceOwnership",
      "outputs": [],
      "stateMutability": "nonpayable",
      "type": "function"
    },
    {
      "inputs": [
        {
          "internalType": "address",
          "name": "from",
          "type": "address"
        },
        {
          "internalType": "address",
          "name": "to",
          "type": "address"
        },
        {
          "internalType": "uint256",
          "name": "tokenId",
          "type": "uint256"
        }
      ],
      "name": "safeTransferFrom",
      "outputs": [],
      "stateMutability": "nonpayable",
      "type": "function"
    },
    {
      "inputs": [
        {
          "internalType": "address",
          "name": "from",
          "type": "address"
        },
        {
          "internalType": "address",
          "name": "to",
          "type": "address"
        },
        {
          "internalType": "uint256",
          "name": "tokenId",
          "type": "uint256"
        },
        {
          "internalType": "bytes",
          "name": "_data",
          "type": "bytes"
        }
      ],
      "name": "safeTransferFrom",
      "outputs": [],
      "stateMutability": "nonpayable",
      "type": "function"
    },
    {
      "inputs": [
        {
          "internalType": "address",
          "name": "operator",
          "type": "address"
        },
        {
          "internalType": "bool",
          "name": "approved",
          "type": "bool"
        }
      ],
      "name": "setApprovalForAll",
      "outputs": [],
      "stateMutability": "nonpayable",
      "type": "function"
    },
    {
      "inputs": [
        {
          "internalType": "bytes4",
          "name": "interfaceId",
          "type": "bytes4"
        }
      ],
      "name": "supportsInterface",
      "outputs": [
        {
          "internalType": "bool",
          "name": "",
          "type": "bool"
        }
      ],
      "stateMutability": "view",
      "type": "function"
    },
    {
      "inputs": [],
      "name": "symbol",
      "outputs": [
        {
          "internalType": "string",
          "name": "",
          "type": "string"
        }
      ],
      "stateMutability": "view",
      "type": "function"
    },
    {
      "inputs": [
        {
          "internalType": "uint256",
          "name": "tokenId",
          "type": "uint256"
        }
      ],
      "name": "tokenURI",
      "outputs": [
        {
          "internalType": "string",
          "name": "",
          "type": "string"
        }
      ],
      "stateMutability": "view",
      "type": "function"
    },
    {
      "inputs": [
        {
          "internalType": "address",
          "name": "from",
          "type": "address"
        },
        {
          "internalType": "address",
          "name": "to",
          "type": "address"
        },
        {
          "internalType": "uint256",
          "name": "tokenId",
          "type": "uint256"
        }
      ],
      "name": "transferFrom",
      "outputs": [],
      "stateMutability": "nonpayable",
      "type": "function"
    },
    {
      "inputs": [
        {
          "internalType": "address",
          "name": "newOwner",
          "type": "address"
        }
      ],
      "name": "transferOwnership",
      "outputs": [],
      "stateMutability": "nonpayable",
      "type": "function"
    }
  ],
  "bytecode": "0x608060405267016345785d8a00006008553480156200001d57600080fd5b506040518060400160405280600481526020017f64656d6f000000000000000000000000000000000000000000000000000000008152506040518060400160405280600281526020017f646d0000000000000000000000000000000000000000000000000000000000008152508160009080519060200190620000a2929190620001b2565b508060019080519060200190620000bb929190620001b2565b505050620000de620000d2620000e460201b60201c565b620000ec60201b60201c565b620002c7565b600033905090565b6000600660009054906101000a900473ffffffffffffffffffffffffffffffffffffffff16905081600660006101000a81548173ffffffffffffffffffffffffffffffffffffffff021916908373ffffffffffffffffffffffffffffffffffffffff1602179055508173ffffffffffffffffffffffffffffffffffffffff168173ffffffffffffffffffffffffffffffffffffffff167f8be0079c531659141344cd1fd0a4f28419497f9722a3daafe3b4186f6b6457e060405160405180910390a35050565b828054620001c09062000262565b90600052602060002090601f016020900481019282620001e4576000855562000230565b82601f10620001ff57805160ff191683800117855562000230565b8280016001018555821562000230579182015b828111156200022f57825182559160200191906001019062000212565b5b5090506200023f919062000243565b5090565b5b808211156200025e57600081600090555060010162000244565b5090565b600060028204905060018216806200027b57607f821691505b6020821081141562000292576200029162000298565b5b50919050565b7f4e487b7100000000000000000000000000000000000000000000000000000000600052602260045260246000fd5b612a9780620002d76000396000f3fe6080604052600436106100fe5760003560e01c806370a0823111610095578063a22cb46511610064578063a22cb4651461033a578063b88d4fde14610363578063c87b56dd1461038c578063e985e9c5146103c9578063f2fde38b14610406576100fe565b806370a0823114610290578063715018a6146102cd5780638da5cb5b146102e457806395d89b411461030f576100fe565b806323b872dd116100d157806323b872dd146101d157806342842e0e146101fa57806354ba0f27146102235780636352211e14610253576100fe565b806301ffc9a71461010357806306fdde0314610140578063081812fc1461016b578063095ea7b3146101a8575b600080fd5b34801561010f57600080fd5b5061012a60048036038101906101259190611c81565b61042f565b604051610137919061241f565b60405180910390f35b34801561014c57600080fd5b50610155610511565b604051610162919061243a565b60405180910390f35b34801561017757600080fd5b50610192600480360381019061018d9190611cd3565b6105a3565b60405161019f91906123b8565b60405180910390f35b3480156101b457600080fd5b506101cf60048036038101906101ca9190611c45565b610628565b005b3480156101dd57600080fd5b506101f860048036038101906101f39190611b3f565b610740565b005b34801561020657600080fd5b50610221600480360381019061021c9190611b3f565b6107a0565b005b61023d60048036038101906102389190611ada565b6107c0565b60405161024a919061265c565b60405180910390f35b34801561025f57600080fd5b5061027a60048036038101906102759190611cd3565b6107ed565b60405161028791906123b8565b60405180910390f35b34801561029c57600080fd5b506102b760048036038101906102b29190611ada565b61089f565b6040516102c4919061265c565b60405180910390f35b3480156102d957600080fd5b506102e2610957565b005b3480156102f057600080fd5b506102f96109df565b60405161030691906123b8565b60405180910390f35b34801561031b57600080fd5b50610324610a09565b604051610331919061243a565b60405180910390f35b34801561034657600080fd5b50610361600480360381019061035c9190611c09565b610a9b565b005b34801561036f57600080fd5b5061038a60048036038101906103859190611b8e565b610c1c565b005b34801561039857600080fd5b506103b360048036038101906103ae9190611cd3565b610c7e565b6040516103c0919061243a565b60405180910390f35b3480156103d557600080fd5b506103f060048036038101906103eb9190611b03565b610d25565b6040516103fd919061241f565b60405180910390f35b34801561041257600080fd5b5061042d60048036038101906104289190611ada565b610db9565b005b60007f80ac58cd000000000000000000000000000000000000000000000000000000007bffffffffffffffffffffffffffffffffffffffffffffffffffffffff1916827bffffffffffffffffffffffffffffffffffffffffffffffffffffffff191614806104fa57507f5b5e139f000000000000000000000000000000000000000000000000000000007bffffffffffffffffffffffffffffffffffffffffffffffffffffffff1916827bffffffffffffffffffffffffffffffffffffffffffffffffffffffff1916145b8061050a575061050982610eb1565b5b9050919050565b6060600080546105209061288c565b80601f016020809104026020016040519081016040528092919081815260200182805461054c9061288c565b80156105995780601f1061056e57610100808354040283529160200191610599565b820191906000526020600020905b81548152906001019060200180831161057c57829003601f168201915b5050505050905090565b60006105ae82610f1b565b6105ed576040517f08c379a00000000000000000000000000000000000000000000000000000000081526004016105e49061259c565b60405180910390fd5b6004600083815260200190815260200160002060009054906101000a900473ffffffffffffffffffffffffffffffffffffffff169050919050565b6000610633826107ed565b90508073ffffffffffffffffffffffffffffffffffffffff168373ffffffffffffffffffffffffffffffffffffffff1614156106a4576040517f08c379a000000000000000000000000000000000000000000000000000000000815260040161069b9061261c565b60405180910390fd5b8073ffffffffffffffffffffffffffffffffffffffff166106c3610f87565b73ffffffffffffffffffffffffffffffffffffffff1614806106f257506106f1816106ec610f87565b610d25565b5b610731576040517f08c379a00000000000000000000000000000000000000000000000000000000081526004016107289061251c565b60405180910390fd5b61073b8383610f8f565b505050565b61075161074b610f87565b82611048565b610790576040517f08c379a00000000000000000000000000000000000000000000000000000000081526004016107879061263c565b60405180910390fd5b61079b838383611126565b505050565b6107bb83838360405180602001604052806000815250610c1c565b505050565b60006107cc6007611382565b60006107d86007611398565b90506107e483826113a6565b80915050919050565b6000806002600084815260200190815260200160002060009054906101000a900473ffffffffffffffffffffffffffffffffffffffff169050600073ffffffffffffffffffffffffffffffffffffffff168173ffffffffffffffffffffffffffffffffffffffff161415610896576040517f08c379a000000000000000000000000000000000000000000000000000000000815260040161088d9061255c565b60405180910390fd5b80915050919050565b60008073ffffffffffffffffffffffffffffffffffffffff168273ffffffffffffffffffffffffffffffffffffffff161415610910576040517f08c379a00000000000000000000000000000000000000000000000000000000081526004016109079061253c565b60405180910390fd5b600360008373ffffffffffffffffffffffffffffffffffffffff1673ffffffffffffffffffffffffffffffffffffffff168152602001908152602001600020549050919050565b61095f610f87565b73ffffffffffffffffffffffffffffffffffffffff1661097d6109df565b73ffffffffffffffffffffffffffffffffffffffff16146109d3576040517f08c379a00000000000000000000000000000000000000000000000000000000081526004016109ca906125bc565b60405180910390fd5b6109dd6000611574565b565b6000600660009054906101000a900473ffffffffffffffffffffffffffffffffffffffff16905090565b606060018054610a189061288c565b80601f0160208091040260200160405190810160405280929190818152602001828054610a449061288c565b8015610a915780601f10610a6657610100808354040283529160200191610a91565b820191906000526020600020905b815481529060010190602001808311610a7457829003601f168201915b5050505050905090565b610aa3610f87565b73ffffffffffffffffffffffffffffffffffffffff168273ffffffffffffffffffffffffffffffffffffffff161415610b11576040517f08c379a0000000000000000000000000000000000000000000000000000000008152600401610b08906124dc565b60405180910390fd5b8060056000610b1e610f87565b73ffffffffffffffffffffffffffffffffffffffff1673ffffffffffffffffffffffffffffffffffffffff16815260200190815260200160002060008473ffffffffffffffffffffffffffffffffffffffff1673ffffffffffffffffffffffffffffffffffffffff16815260200190815260200160002060006101000a81548160ff0219169083151502179055508173ffffffffffffffffffffffffffffffffffffffff16610bcb610f87565b73ffffffffffffffffffffffffffffffffffffffff167f17307eab39ab6107e8899845ad3d59bd9653f200f220920489ca2b5937696c3183604051610c10919061241f565b60405180910390a35050565b610c2d610c27610f87565b83611048565b610c6c576040517f08c379a0000000000000000000000000000000000000000000000000000000008152600401610c639061263c565b60405180910390fd5b610c788484848461163a565b50505050565b6060610c8982610f1b565b610cc8576040517f08c379a0000000000000000000000000000000000000000000000000000000008152600401610cbf906125fc565b60405180910390fd5b6000610cd2611696565b90506000815111610cf25760405180602001604052806000815250610d1d565b80610cfc846116ad565b604051602001610d0d929190612394565b6040516020818303038152906040525b915050919050565b6000600560008473ffffffffffffffffffffffffffffffffffffffff1673ffffffffffffffffffffffffffffffffffffffff16815260200190815260200160002060008373ffffffffffffffffffffffffffffffffffffffff1673ffffffffffffffffffffffffffffffffffffffff16815260200190815260200160002060009054906101000a900460ff16905092915050565b610dc1610f87565b73ffffffffffffffffffffffffffffffffffffffff16610ddf6109df565b73ffffffffffffffffffffffffffffffffffffffff1614610e35576040517f08c379a0000000000000000000000000000000000000000000000000000000008152600401610e2c906125bc565b60405180910390fd5b600073ffffffffffffffffffffffffffffffffffffffff168173ffffffffffffffffffffffffffffffffffffffff161415610ea5576040517f08c379a0000000000000000000000000000000000000000000000000000000008152600401610e9c9061247c565b60405180910390fd5b610eae81611574565b50565b60007f01ffc9a7000000000000000000000000000000000000000000000000000000007bffffffffffffffffffffffffffffffffffffffffffffffffffffffff1916827bffffffffffffffffffffffffffffffffffffffffffffffffffffffff1916149050919050565b60008073ffffffffffffffffffffffffffffffffffffffff166002600084815260200190815260200160002060009054906101000a900473ffffffffffffffffffffffffffffffffffffffff1673ffffffffffffffffffffffffffffffffffffffff1614159050919050565b600033905090565b816004600083815260200190815260200160002060006101000a81548173ffffffffffffffffffffffffffffffffffffffff021916908373ffffffffffffffffffffffffffffffffffffffff160217905550808273ffffffffffffffffffffffffffffffffffffffff16611002836107ed565b73ffffffffffffffffffffffffffffffffffffffff167f8c5be1e5ebec7d5bd14f71427d1e84f3dd0314c0f7b2291e5b200ac8c7c3b92560405160405180910390a45050565b600061105382610f1b565b611092576040517f08c379a0000000000000000000000000000000000000000000000000000000008152600401611089906124fc565b60405180910390fd5b600061109d836107ed565b90508073ffffffffffffffffffffffffffffffffffffffff168473ffffffffffffffffffffffffffffffffffffffff16148061110c57508373ffffffffffffffffffffffffffffffffffffffff166110f4846105a3565b73ffffffffffffffffffffffffffffffffffffffff16145b8061111d575061111c8185610d25565b5b91505092915050565b8273ffffffffffffffffffffffffffffffffffffffff16611146826107ed565b73ffffffffffffffffffffffffffffffffffffffff161461119c576040517f08c379a0000000000000000000000000000000000000000000000000000000008152600401611193906125dc565b60405180910390fd5b600073ffffffffffffffffffffffffffffffffffffffff168273ffffffffffffffffffffffffffffffffffffffff16141561120c576040517f08c379a0000000000000000000000000000000000000000000000000000000008152600401611203906124bc565b60405180910390fd5b61121783838361185a565b611222600082610f8f565b6001600360008573ffffffffffffffffffffffffffffffffffffffff1673ffffffffffffffffffffffffffffffffffffffff168152602001908152602001600020600082825461127291906127a2565b925050819055506001600360008473ffffffffffffffffffffffffffffffffffffffff1673ffffffffffffffffffffffffffffffffffffffff16815260200190815260200160002060008282546112c9919061271b565b92505081905550816002600083815260200190815260200160002060006101000a81548173ffffffffffffffffffffffffffffffffffffffff021916908373ffffffffffffffffffffffffffffffffffffffff160217905550808273ffffffffffffffffffffffffffffffffffffffff168473ffffffffffffffffffffffffffffffffffffffff167fddf252ad1be2c89b69c2b068fc378daa952ba7f163c4a11628f55a4df523b3ef60405160405180910390a4505050565b6001816000016000828254019250508190555050565b600081600001549050919050565b600073ffffffffffffffffffffffffffffffffffffffff168273ffffffffffffffffffffffffffffffffffffffff161415611416576040517f08c379a000000000000000000000000000000000000000000000000000000000815260040161140d9061257c565b60405180910390fd5b61141f81610f1b565b1561145f576040517f08c379a00000000000000000000000000000000000000000000000000000000081526004016114569061249c565b60405180910390fd5b61146b6000838361185a565b6001600360008473ffffffffffffffffffffffffffffffffffffffff1673ffffffffffffffffffffffffffffffffffffffff16815260200190815260200160002060008282546114bb919061271b565b92505081905550816002600083815260200190815260200160002060006101000a81548173ffffffffffffffffffffffffffffffffffffffff021916908373ffffffffffffffffffffffffffffffffffffffff160217905550808273ffffffffffffffffffffffffffffffffffffffff16600073ffffffffffffffffffffffffffffffffffffffff167fddf252ad1be2c89b69c2b068fc378daa952ba7f163c4a11628f55a4df523b3ef60405160405180910390a45050565b6000600660009054906101000a900473ffffffffffffffffffffffffffffffffffffffff16905081600660006101000a81548173ffffffffffffffffffffffffffffffffffffffff021916908373ffffffffffffffffffffffffffffffffffffffff1602179055508173ffffffffffffffffffffffffffffffffffffffff168173ffffffffffffffffffffffffffffffffffffffff167f8be0079c531659141344cd1fd0a4f28419497f9722a3daafe3b4186f6b6457e060405160405180910390a35050565b611645848484611126565b6116518484848461185f565b611690576040517f08c379a00000000000000000000000000000000000000000000000000000000081526004016116879061245c565b60405180910390fd5b50505050565b606060405180602001604052806000815250905090565b606060008214156116f5576040518060400160405280600181526020017f30000000000000000000000000000000000000000000000000000000000000008152509050611855565b600082905060005b60008214611727578080611710906128be565b915050600a826117209190612771565b91506116fd565b60008167ffffffffffffffff811115611769577f4e487b7100000000000000000000000000000000000000000000000000000000600052604160045260246000fd5b6040519080825280601f01601f19166020018201604052801561179b5781602001600182028036833780820191505090505b5090505b6000851461184e576001826117b491906127a2565b9150600a856117c39190612907565b60306117cf919061271b565b60f81b81838151811061180b577f4e487b7100000000000000000000000000000000000000000000000000000000600052603260045260246000fd5b60200101907effffffffffffffffffffffffffffffffffffffffffffffffffffffffffffff1916908160001a905350600a856118479190612771565b945061179f565b8093505050505b919050565b505050565b60006118808473ffffffffffffffffffffffffffffffffffffffff166119f6565b156119e9578373ffffffffffffffffffffffffffffffffffffffff1663150b7a026118a9610f87565b8786866040518563ffffffff1660e01b81526004016118cb94939291906123d3565b602060405180830381600087803b1580156118e557600080fd5b505af192505050801561191657506040513d601f19601f820116820180604052508101906119139190611caa565b60015b611999573d8060008114611946576040519150601f19603f3d011682016040523d82523d6000602084013e61194b565b606091505b50600081511415611991576040517f08c379a00000000000000000000000000000000000000000000000000000000081526004016119889061245c565b60405180910390fd5b805181602001fd5b63150b7a0260e01b7bffffffffffffffffffffffffffffffffffffffffffffffffffffffff1916817bffffffffffffffffffffffffffffffffffffffffffffffffffffffff1916149150506119ee565b600190505b949350505050565b600080823b905060008111915050919050565b6000611a1c611a17846126a8565b612677565b905082815260208101848484011115611a3457600080fd5b611a3f84828561284a565b509392505050565b600081359050611a5681612a05565b92915050565b600081359050611a6b81612a1c565b92915050565b600081359050611a8081612a33565b92915050565b600081519050611a9581612a33565b92915050565b600082601f830112611aac57600080fd5b8135611abc848260208601611a09565b91505092915050565b600081359050611ad481612a4a565b92915050565b600060208284031215611aec57600080fd5b6000611afa84828501611a47565b91505092915050565b60008060408385031215611b1657600080fd5b6000611b2485828601611a47565b9250506020611b3585828601611a47565b9150509250929050565b600080600060608486031215611b5457600080fd5b6000611b6286828701611a47565b9350506020611b7386828701611a47565b9250506040611b8486828701611ac5565b9150509250925092565b60008060008060808587031215611ba457600080fd5b6000611bb287828801611a47565b9450506020611bc387828801611a47565b9350506040611bd487828801611ac5565b925050606085013567ffffffffffffffff811115611bf157600080fd5b611bfd87828801611a9b565b91505092959194509250565b60008060408385031215611c1c57600080fd5b6000611c2a85828601611a47565b9250506020611c3b85828601611a5c565b9150509250929050565b60008060408385031215611c5857600080fd5b6000611c6685828601611a47565b9250506020611c7785828601611ac5565b9150509250929050565b600060208284031215611c9357600080fd5b6000611ca184828501611a71565b91505092915050565b600060208284031215611cbc57600080fd5b6000611cca84828501611a86565b91505092915050565b600060208284031215611ce557600080fd5b6000611cf384828501611ac5565b91505092915050565b611d05816127d6565b82525050565b611d14816127e8565b82525050565b6000611d25826126d8565b611d2f81856126ee565b9350611d3f818560208601612859565b611d48816129f4565b840191505092915050565b6000611d5e826126e3565b611d6881856126ff565b9350611d78818560208601612859565b611d81816129f4565b840191505092915050565b6000611d97826126e3565b611da18185612710565b9350611db1818560208601612859565b80840191505092915050565b6000611dca6032836126ff565b91507f4552433732313a207472616e7366657220746f206e6f6e20455243373231526560008301527f63656976657220696d706c656d656e74657200000000000000000000000000006020830152604082019050919050565b6000611e306026836126ff565b91507f4f776e61626c653a206e6577206f776e657220697320746865207a65726f206160008301527f64647265737300000000000000000000000000000000000000000000000000006020830152604082019050919050565b6000611e96601c836126ff565b91507f4552433732313a20746f6b656e20616c7265616479206d696e746564000000006000830152602082019050919050565b6000611ed66024836126ff565b91507f4552433732313a207472616e7366657220746f20746865207a65726f2061646460008301527f72657373000000000000000000000000000000000000000000000000000000006020830152604082019050919050565b6000611f3c6019836126ff565b91507f4552433732313a20617070726f766520746f2063616c6c6572000000000000006000830152602082019050919050565b6000611f7c602c836126ff565b91507f4552433732313a206f70657261746f7220717565727920666f72206e6f6e657860008301527f697374656e7420746f6b656e00000000000000000000000000000000000000006020830152604082019050919050565b6000611fe26038836126ff565b91507f4552433732313a20617070726f76652063616c6c6572206973206e6f74206f7760008301527f6e6572206e6f7220617070726f76656420666f7220616c6c00000000000000006020830152604082019050919050565b6000612048602a836126ff565b91507f4552433732313a2062616c616e636520717565727920666f7220746865207a6560008301527f726f2061646472657373000000000000000000000000000000000000000000006020830152604082019050919050565b60006120ae6029836126ff565b91507f4552433732313a206f776e657220717565727920666f72206e6f6e657869737460008301527f656e7420746f6b656e00000000000000000000000000000000000000000000006020830152604082019050919050565b60006121146020836126ff565b91507f4552433732313a206d696e7420746f20746865207a65726f20616464726573736000830152602082019050919050565b6000612154602c836126ff565b91507f4552433732313a20617070726f76656420717565727920666f72206e6f6e657860008301527f697374656e7420746f6b656e00000000000000000000000000000000000000006020830152604082019050919050565b60006121ba6020836126ff565b91507f4f776e61626c653a2063616c6c6572206973206e6f7420746865206f776e65726000830152602082019050919050565b60006121fa6029836126ff565b91507f4552433732313a207472616e73666572206f6620746f6b656e2074686174206960008301527f73206e6f74206f776e00000000000000000000000000000000000000000000006020830152604082019050919050565b6000612260602f836126ff565b91507f4552433732314d657461646174613a2055524920717565727920666f72206e6f60008301527f6e6578697374656e7420746f6b656e00000000000000000000000000000000006020830152604082019050919050565b60006122c66021836126ff565b91507f4552433732313a20617070726f76616c20746f2063757272656e74206f776e6560008301527f72000000000000000000000000000000000000000000000000000000000000006020830152604082019050919050565b600061232c6031836126ff565b91507f4552433732313a207472616e736665722063616c6c6572206973206e6f74206f60008301527f776e6572206e6f7220617070726f7665640000000000000000000000000000006020830152604082019050919050565b61238e81612840565b82525050565b60006123a08285611d8c565b91506123ac8284611d8c565b91508190509392505050565b60006020820190506123cd6000830184611cfc565b92915050565b60006080820190506123e86000830187611cfc565b6123f56020830186611cfc565b6124026040830185612385565b81810360608301526124148184611d1a565b905095945050505050565b60006020820190506124346000830184611d0b565b92915050565b600060208201905081810360008301526124548184611d53565b905092915050565b6000602082019050818103600083015261247581611dbd565b9050919050565b6000602082019050818103600083015261249581611e23565b9050919050565b600060208201905081810360008301526124b581611e89565b9050919050565b600060208201905081810360008301526124d581611ec9565b9050919050565b600060208201905081810360008301526124f581611f2f565b9050919050565b6000602082019050818103600083015261251581611f6f565b9050919050565b6000602082019050818103600083015261253581611fd5565b9050919050565b600060208201905081810360008301526125558161203b565b9050919050565b60006020820190508181036000830152612575816120a1565b9050919050565b6000602082019050818103600083015261259581612107565b9050919050565b600060208201905081810360008301526125b581612147565b9050919050565b600060208201905081810360008301526125d5816121ad565b9050919050565b600060208201905081810360008301526125f5816121ed565b9050919050565b6000602082019050818103600083015261261581612253565b9050919050565b60006020820190508181036000830152612635816122b9565b9050919050565b600060208201905081810360008301526126558161231f565b9050919050565b60006020820190506126716000830184612385565b92915050565b6000604051905081810181811067ffffffffffffffff8211171561269e5761269d6129c5565b5b8060405250919050565b600067ffffffffffffffff8211156126c3576126c26129c5565b5b601f19601f8301169050602081019050919050565b600081519050919050565b600081519050919050565b600082825260208201905092915050565b600082825260208201905092915050565b600081905092915050565b600061272682612840565b915061273183612840565b9250827fffffffffffffffffffffffffffffffffffffffffffffffffffffffffffffffff0382111561276657612765612938565b5b828201905092915050565b600061277c82612840565b915061278783612840565b92508261279757612796612967565b5b828204905092915050565b60006127ad82612840565b91506127b883612840565b9250828210156127cb576127ca612938565b5b828203905092915050565b60006127e182612820565b9050919050565b60008115159050919050565b60007fffffffff0000000000000000000000000000000000000000000000000000000082169050919050565b600073ffffffffffffffffffffffffffffffffffffffff82169050919050565b6000819050919050565b82818337600083830152505050565b60005b8381101561287757808201518184015260208101905061285c565b83811115612886576000848401525b50505050565b600060028204905060018216806128a457607f821691505b602082108114156128b8576128b7612996565b5b50919050565b60006128c982612840565b91507fffffffffffffffffffffffffffffffffffffffffffffffffffffffffffffffff8214156128fc576128fb612938565b5b600182019050919050565b600061291282612840565b915061291d83612840565b92508261292d5761292c612967565b5b828206905092915050565b7f4e487b7100000000000000000000000000000000000000000000000000000000600052601160045260246000fd5b7f4e487b7100000000000000000000000000000000000000000000000000000000600052601260045260246000fd5b7f4e487b7100000000000000000000000000000000000000000000000000000000600052602260045260246000fd5b7f4e487b7100000000000000000000000000000000000000000000000000000000600052604160045260246000fd5b6000601f19601f8301169050919050565b612a0e816127d6565b8114612a1957600080fd5b50565b612a25816127e8565b8114612a3057600080fd5b50565b612a3c816127f4565b8114612a4757600080fd5b50565b612a5381612840565b8114612a5e57600080fd5b5056fea264697066735822122037dcaf012dd42d2a67f2580f624dce788a94464d45eef2f999ee6168e6af528364736f6c63430008000033",
  "linkReferences": {},
  "deployedLinkReferences": {}
}